:100000000C94A8050C94C5050C94C5050C94C50565
:100010000C94C5050C94C5050C94C5050C94C50538
:100020000C94C5050C94C5050C94C5050C94C50528
:100030000C94C5050C94C5050C94C5050C94C50518
:100040000C94C5050C94B40A0C94C5050C94C50514
:100050000C94C505240BD00AD00AD00AD00AD00AC5
:10006000D00AD00A240BD00AD00AD00AD00AD00A6B
:10007000D00AD00A240BD00AD00AD00AD00AD00A5B
:10008000D00AD00A240BD00AD00AD00AD00AD00A4B
:10009000D00AD00A290BD00AD00AD00AD00AD00A36
:1000A000D00AD00AD00AD00AD00AD00AD00AD00A80
:1000B000D00AD00A290BD00AD00AD00AD00AD00A16
:1000C000D00AD00AD00AD00AD00AD00AD00AD00A60
:1000D000D00AD00A3A0BD00AD00AD00AD00AD00AE5
:1000E000D00AD00AE70AD00AD00AD00AD00AD00A29
:1000F000D00AD00AE70AD00AD00AD00AD00AD00A19
:10010000D00AD00AF00AD00AD00AD00AD00AD00AFF
:10011000D00AD00A0A0BD00AD00AD00AD00AD00AD4
:10012000D00AD00A0A0B70510386400D4FEB3ECC2B
:10013000D18735BDF50B5ED0F8F2D5E26C310CAD50
:10014000FC21C378C106C24C55E64A3448111EDA78
:10015000E71A84A096A7E37FAF639CFA235B79C874
:100160009EBAB2C922124BB3A1B63249A2E1893973
:100170001066C5078F54EA91CA3FF919F0D746BCFB
:10018000281B61E82F6AAE9DF64E0914774DDB1FE0
:100190002E7B7CF143A300B8138C85B9297588FDAB
:1001A000D2561C509741E53B60B5C064EE98D62D01
:1001B00025A4AACD7DA883C6ABBE4499263CCE9F7C
:1001C000BFD3CB767A7E82018A9A801D0EB05CD432
:1001D0003862F430E08E53B70257ACA6520A6D92E3
:1001E00065172433457274B1B4F75DED2CFF4737C2
:1001F0005A90BBDF2A165995D9C4276773C768FE82
:10020000A5DD6B5F93D8EC053A8D6EFB3DA9693691
:10021000F394DEEF156F8B9B080FDC81182004E44C
:1002200071CFE92B425801A0A962D63F85A7B6D469
:10023000FA15661709BD5D14342659729154064F9C
:10024000F8B05B7493998CF245CDEA4EAD104AE557
:10025000CAEEDFC66F9F888E02CC08A877946D2106
:10026000B128E4397996607181162EE678B9C446D2
:100270009A42AEB77C43B3221A86C2323D2D9CD23D
:1002800029E9639BD131385E1E3641BB03182B3EF2
:10029000BF6861FC52C0DEE00A58135A00BE1C90D1
:1002A0000E5312FDE26EBACE2427447F87A3A1D558
:1002B0005040E3F983F7C7A235C8DB19AB2F1125EE
:1002C000ED339E55E148AF7384DA2AAA51EB9D9530
:1002D000B2CBE77080FE4C6504EFC5F1C33AB4F5CC
:1002E0005F2389DD30A58BD3F6DC4D64D7F08FEC2E
:1002F00056375CA40D07768A2C0BB5D8C11FE83B96
:10030000F44B1B476C49677B92CF757E20D97D3CAF
:10031000977AD0056B0F1DFB8298578DF36ABCACA2
:10032000C9A6FFB8690C4C4D72075A49338DA2AB70
:10033000463D630DA097FFF0F5FAC0E9DB62E4E10A
:100340007443DC86182937F406E2ED6F90481E2DC1
:100350001DEA739454DF25F64727D91177C9841C09
:100360005B5C5181A6223E2496C88AEC827C09B847
:10037000454A57BB2F50758E61708C6CAFD0FDB461
:100380001BAEDEFE3BB536BD55010E9C41565FB33C
:10039000260383BA134BCAC50AF860A5B9C7C39828
:1003A00032FB12F9A792AA68F3787E05202102E8B1
:1003B000BFF2B0598FD2CB876515F11AB230ADEECE
:1003C00058A38B661F2CD75D1985A8E6D36BA10CAB
:1003D00091936A5E0B79E3DD004F3C896E7169A9E8
:1003E000AC40E59928C6314E7ACD089E7DEF17FCCA
:1003F00088D8A46D4495D1B7D49BBE2A34642BCF42
:100400002EEB38CE23E03A3FF77B9F1053BC526768
:1004100016E7807604C4B6C1C27F9ADAD539421491
:100420009DB10F35D6CCB9DA380CA29C091F06B1A4
:10043000B6FD1A692330C4DE01D1F45829371C7D7A
:10044000D5BFFFBDC8C9CF65BE7B7897986708B395
:100450002657F7FA40AD8E75A67CDB918B5199D467
:10046000177A908DCE63CB4EA0AB183A5B507F21AC
:1004700074C1BBB8B7BA0B359531599A4D04071EF4
:100480005A7613F37183D08603A83942AA28E6E48A
:10049000D85DD3D06E6F96FB5EBC56C25F859BE77E
:1004A000AFD23B846AA753C54449A5F936723D2CA7
:1004B000D91BA1F54F939D68474116CA2A4CA387C3
:1004C000D6E5192E77156D70C0DFB20046EDC66C0B
:1004D0004360922DA922458F3455AEA40A6632E0BE
:1004E000DC02ACE8208C89624AFEEEC3E33CF17981
:1004F00005E9F62733CCF29E11817E80108A829F17
:10050000480DD7B4FC2FB5C7DD88146B2B54EA1DFA
:10051000945CB0EF1224CDEBE1E264733F0E5261C4
:10052000253EF80F4BECC00030F602493D106E201E
:10053000C9A62FFE2C2B752E4526AB48A980FC049E
:10054000CCD3B5BAA338317D01D9A77B96B6636900
:100550004EF7DEE078CA50AA41916588E42185DA39
:100560003A27BE1C3E425E17527F1F89246F8F5C64
:1005700067740E12878DE934ED73C4F8615B05DF93
:10058000594C97798318A45595EBBD53F5F15766EF
:10059000469FB2810951862216DD23937629C2D760
:1005A0001DD4BF363FEA4B1132B9625460D66D4359
:1005B0009A0D929CB0EF586C9D772D70FAF3B30BA7
:1005C000E2407EF48AE58C3C5671D164E1820ACB2C
:1005D000131590EC0399AF145D0F334A94A5A83519
:1005E0001BE36AC628FF4DE72584AC08AEC5A22AE6
:1005F000B8370C7AA0C3CEAD061A9E8BFBD5D0C1FE
:100600001ED0B49BB144F247C768CF72BB4F5AF9B2
:10061000DC6BDBD2E87CC8EE98A1E6D839075FFD39
:100620008E19B73BBCCD7CE38173B211BF6F2098AC
:10063000FE7596EF6CDA50E109725445BA34805B6E
:10064000ED3E532C87A457F3333F3CB767B4A32543
:10065000604F076B1B47150FE40AEAD13278364921
:100660008D4BD2BCA5DC1D0D4DCD9A825FFC9465EF
:10067000BEE2F4C91E44CB9E0C64712663B314E839
:1006800040708A0E19426DAC88105CDF41A9ADE55F
:10069000FB74CCD5068E5986CE1F3D76E08FB97798
:1006A000277BA6D829D3ECB813F7FAC3516ADE4AE0
:1006B0005AEBC28B234892CF62A899F8D02E85615D
:1006C00043C8BDF00593CA4EF17D30FDC469662F65
:1006D00008B152F921E67A2BDD3984FFC091D63773
:1006E000D47F2D9B5DA13B6EB5C54604F590EE7E93
:1006F000831C0356B6AA0017013555790B12BB1A95
:1007000031E7022816C1F6A2DB189C89683897AB3E
:10071000C72AD73AF2C6244CB058A0225E9DD9A76A
:10072000E9AEAF8C959F28B720D7B030C30919C068
:1007300067D6003C7EE7E9F4085AF8B82E05A625EE
:100740009E5CD8150DE1F611546BCD2146665E8492
:10075000AD06382944C5A2CEF1AAC1407186B5EFD5
:10076000FC36A8CB0A48274564A3AF8CB2C69F07C6
:1007700089DC17D34979FBFE1DD0B9884352BC01EF
:10078000782B7D94C70EDEA5D59BCCF7617AC27419
:10079000813903AB96A037BD2D72753FC9D48E6FDA
:1007A000F98DED62DB1CDF04AC1B6C144B63D0BF16
:1007B000B482EC7B1A5992D21060B63D5FE6806E2F
:1007C00070C4F235D97CEEE541A45B50DDBB4CF33F
:1007D0001F9D5D57555197E358424D9C73BAC8779A
:1007E000316926AEEA8ADA22B38756FA930B3416B9
:1007F00033E8E453BEA9B13A3EF5906ACF3B12FD0F
:100800008F9AA7479199EB0F24FF2318854E7F0CF1
:10081000E0A1D2D12C2A4A024F1E95688B98836D95
:1008200076CA6532132FC3829AA4BA8160373435F1
:10083000FC80A8516567ED305F10D34A272F13B9AC
:100840002AD2CCE1EFAEEBBEF4BDCF43B3C5888472
:10085000B7DD3940CE486D9B72617EE7A14E532EC5
:10086000773BE2C936221B6E73B103B24C87A9D421
:100870004D0FD8156CAA18F649575DFB7A1494638E
:10088000A011B09EDE0546C8EE47DBDC24899C91B2
:100890009729E97BC1071EB8FDFEACC662984FF1EF
:1008A00079E0E86B7856B68D045086CA6F20E6EA88
:1008B000E576171C747FBC0D2C85F76696E48B7566
:1008C0003F4BD938AF7CDA0B832D3132A2F51D595D
:1008D0004145BF3C1FF8F98AD016256912999D2120
:1008E00095AB01A6D7B5C07DFF580E3A92D155E31E
:1008F000089FD63E528EFAA3C702CDDF8F64198CB3
:10090000F3A70C5E0A6A09F0935B42C20623EC71FE
:10091000ADB4CBBB7028D51A5C33685A004490A59F
:10092000C4263D2BF25496ADDA1FED33E181690800
:100930000D0ADB35779A64D1FC78AA1BD067A0DD5D
:10094000FA6C63710584176A894F667FC6505592A9
:100950006FBDE7D240728DBBEC06428AE4889D7E73
:100960007A822713411AAFC8A476B4C2FE6D1CD98F
:100970006130B37CEAF7290FF23B51C1DE5FE52A13
:100980002F990B5DA32B4AAB95A5D35856EE283172
:1009900000CC1546CAE686383C65F5E39FD65B0970
:1009A0004983702D53A97DE2C4AC8E5EB825F4B99D
:1009B00057F3F16847B2A25920CE34795C900E1EED
:1009C000BED52223B1C91862162E913E078FD83F9B
:1009D000933DD49BDF8521FB117497C7D7DC4C195D
:1009E0004598E943024BBCC3049C6BF07552A726A3
:1009F000F6C5BACFB0B7AE5AA1BF038B80126E0C4A
:100A0000EBF9C04424EF10F8A88CE87BFF9E2CCDB6
:100A1000603687B594A654733A144E011DB6FD375F
:100A2000484D39CBE032000000000000000000001B
:100A300000000000000000000000000000000000B6
:100A400000000000000000000000000000000000A6
:100A50000000000000000000000000000000000096
:100A60000000000000000000000000000000000086
:100A70000000000000000000000000000000000076
:100A80000000000000000000000000000000000066
:100A90000000000000000000000000000000000056
:100AA0000000000000000000000000000000000046
:100AB0000000000000000000000000000000000036
:100AC0000000000000000000000000000000000026
:100AD0000000000000000000000000000000000016
:100AE0000000000000000000000000000000000006
:100AF00000000000000000000000000000000000F6
:100B000000000000000000000000000000000000E5
:100B100000000000000000000000000000000000D5
:100B2000000000000000A877A6E0F7435A3585E2F0
:100B300072978FB71A6287380D67C7BE4F3E20760F
:100B4000378F68B7A9263F2B10E3307E900E850AB9
:100B500011241FBECFE5D4E0DEBFCDBF10E0A0E67C
:100B6000B0E0E6ECF6E202C005900D92AE3AB107B5
:100B7000D9F722E0AEEAB0E001C01D92A932B20777
:100B8000E1F70E948B0F0C9461130C940000CF933B
:100B9000DF93CDB7DEB728970FB6F894DEBF0FBE50
:100BA000CDBFA8958091AF00823008F4A1C180919B
:100BB000ED01813009F496C08091ED01833049F058
:100BC00028960FB6F894DEBF0FBECDBFDF91CF9150
:100BD00008958091C400805889838091C200805814
:100BE0008A839091C3008FE7482F491B4B839091D4
:100BF000C100282F291B2C839091C0009D839091C8
:100C0000BF009E839FEF9F8398879091BD009111B5
:100C100077C18FEF9091BB00992311F08F7B8F8369
:100C20009091B300992311F08F7D8F839091B6003E
:100C3000992311F08F7E8F839091B400992311F046
:100C4000877F8F839091B500992311F08B7F8F83DD
:100C50009091B200992311F08D7F8F839091B10014
:100C6000992311F09FE798879091B900992319F083
:100C700098859F7B98879091B700992319F0988564
:100C80009F7D98879091BA00992319F098859F7E4F
:100C900098879091B800992319F09885977F988745
:100CA0009091B000992319F098859B7F9887909137
:100CB000BE00992319F098859D7F98879091BC007C
:100CC000992319F098859E7F98878E7F8E3F21F417
:100CD00088858F3F09F4E6C0979ACE0101960E945D
:100CE000730A6ECF8FEF8D838E831F82188680915B
:100CF000C4009091C3002091C20027FD05C1259535
:100D000025952595022E000C330B205F3F4F28714F
:100D10003327220F331F220F331F220F331F87FD6C
:100D2000F1C085958595805E282B29832091C2008E
:100D300027FDF2C0259525952595022E000C330B35
:100D400026703327220F331F22953295307F3227AA
:100D5000207F3227892F97FDDDC085958595819568
:100D6000082E000C990B80968F739927822B8A830B
:100D70002091C2008091C1003091C00087FDC8C0A1
:100D80008595859585958195082E000C990B409643
:100D90008F719927932F96959076892B27FDB6C052
:100DA00025952595259540E8240390011124822B53
:100DB0008B839091C0002091BF0096959695969553
:100DC00030E2939FC0011124922F969596959695A7
:100DD000892B8C838091BD0081118FC08FEF909102
:100DE000BB00992311F08F7B8D839091B3009923E1
:100DF00011F08F7D8D839091B600992311F08F7E35
:100E00008D839091B400992311F0877F8D83909109
:100E1000B500992311F08B7F8D839091B2009923B7
:100E200011F08D7F8D839091B100992311F09FE790
:100E30009E839091B900992319F09E819F7B9E8398
:100E40009091B700992319F09E819F7D9E83909188
:100E5000BA00992319F09E819F7E9E839091B800DD
:100E6000992319F09E81977F9E839091B0009923DA
:100E700019F09E819B7F9E839091BE00992319F06B
:100E80009E819D7F9E839091BC00992319F09E8145
:100E90009E7F9E838E7F8E3F09F01ECF8E818F3F77
:100EA00009F01ACF8091C40087FD38C08091C4003A
:100EB00080320CF011CF8091C30087FD39C0809142
:100EC000C30080320CF008CF8091C20087FD3AC089
:100ED0008091C20080320CF0FFCE8091C10087FD6E
:100EE0003BC08091C10080320CF0F6CE9798F5CED1
:100EF00082E08093AF00969A5ACE8FE78D836FCFB2
:100F00008F8388CE8D5F0DCF295FF9CE295F48CFC3
:100F1000895F36CF8D5F21CF295F0CCF8091C400D0
:100F2000992781950CF4909580970CF0D5CEC3CF7E
:100F30008091C300992781950CF4909580970CF0CF
:100F4000CBCEC2CF8091C200992781950CF49095A9
:100F500080970CF0C1CEC1CF8091C10099278195B7
:100F60000CF4909580970CF0B7CE9798B6CE10926F
:100F7000EE001092ED00880F82B985E486BF789468
:100F80000895811103C085E886BF089585EC86BF6A
:100F90000895262F30E0982F01C096956A95EAF7BC
:100FA0003195219531092770332701C0880F2A9583
:100FB000EAF7892B08953F924F925F926F927F924A
:100FC0008F929F92AF92BF92CF92DF92EF92FF9259
:100FD0000F931F93CF93DF93CDB7DEB766970FB60E
:100FE000F894DEBF0FBECDBF76E2872E7BE0972E52
:100FF000C12CD12C8E010F5F1F4FAE01455F5F4F9B
:101000007A01CE0147965C01DE015196F40184918C
:101010008D933196AA15BB05D1F7D801FD01E01BD0
:10102000F10BE152FF4FE081F0E0EA5DFE4FE49109
:10103000ED93AE15BF0591F77B81EE815A843D811A
:1010400029892E27472F4770842F90E0322E01C028
:1010500036944A95EAF79195819591098770992779
:1010600001C0220F8A95EAF72329251923272B8708
:101070004981FA8168852A892F27542F5770852F37
:1010800090E0722E01C076945A95EAF79195819579
:1010900091098770992701C0220F8A95EAF72729BD
:1010A0002E1B26272C877F8029852770822F90E092
:1010B0005B895725652E022E01C066940A94EAF7D3
:1010C00091958195910987709927082E01C0550F38
:1010D0000A94EAF7652A671A64266D869C816C88F3
:1010E0006326462F4770442E50E0362C01C03694BC
:1010F0004A94EAF7432C5195419551094770552779
:1011000001C0660C4A95EAF74628491A47264E86DA
:101110004D89F427772D7770472F50E07F2E01C03F
:1011200076947A95EAF7519541955109477055277C
:1011300001C0FF0F4A95EAF7F729F91B3F273F87C0
:101140009E896927962F01C096952A95EAF701C0D6
:10115000660F8A95EAF7692B6E1B5626588A46E079
:1011600050E069ED70E0CD010E943F13892B09F436
:101170005BC14FEFC41AD40A56E0850E911C87E07C
:10118000C816D10409F040CF49E050E088E090E073
:101190002091DD00982F8827FC01E20FF11DEA5D08
:1011A000FE4F24913091E200D42ECC24F601E30FBF
:1011B000F11DEA5DFE4FE491E227E093D10020911A
:1011C000DB00FC01E20FF11DEA5DFE4F249130913E
:1011D000E400F601E30FF11DEA5DFE4FE491E22722
:1011E000E093D2002091DE00FC01E20FF11DEA5DE8
:1011F000FE4F24913091E600F601E30FF11DEA5D08
:10120000FE4FE491E227E093D3002091D900FC0146
:10121000E20FF11DEA5DFE4F24913091E100F601ED
:10122000E30FF11DEA5DFE4FE491E227E093D40065
:101230002091DA00FC01E20FF11DEA5DFE4F2491DE
:101240003091E300F601E30FF11DEA5DFE4FE491FA
:10125000E227E093D5002091DC00FC01E20FF11DB4
:10126000EA5DFE4F24913091E800F601E30FF11D95
:10127000EA5DFE4FE491E227E093D6002091DF0083
:10128000FC01E20FF11DEA5DFE4F24913091E50073
:10129000F601E30FF11DEA5DFE4FE491E227E093D2
:1012A000D7002091E000FC01E20FF11DEA5DFE4F46
:1012B00024913091E700F601E30FF11DEA5DFE4F46
:1012C000E491E227E093D8002091D900FC01E20FDD
:1012D000F11DEA5DFE4F24913091E000F601E30F2D
:1012E000F11DEA5DFE4FE491E227E093C9002091F1
:1012F000DE00FC01E20FF11DEA5DFE4F249130910A
:10130000E300F601E30FF11DEA5DFE4FE491E227F1
:10131000E093CA002091DC00FC01E20FF11DEA5DC0
:10132000FE4F24913091DF00F601E30FF11DEA5DDD
:10133000FE4FE491E227E093CB002091DB00FC011B
:10134000E20FF11DEA5DFE4F24913091E800F601B5
:10135000E30FF11DEA5DFE4FE491E227E093CC003C
:101360002091DD00FC01E20FF11DEA5DFE4F2491AA
:101370003091E600F601E30FF11DEA5DFE4FE491C6
:10138000E227E093CD002091DA00FC01E20FF11D8D
:10139000EA5DFE4F24913091E700F601E30FF11D65
:1013A000EA5DFE4FE491E227E093CE002091E20057
:1013B000FC01E20FF11DEA5DFE4F24913091E40043
:1013C000F601E30FF11DEA5DFE4FE491E227E093A1
:1013D000CF002091E100FC01E20FF11DEA5DFE4F1C
:1013E00084919091E500F601E90FF11DEA5DFE4F51
:1013F000E491E827E093D00066960FB6F894DEBF3C
:101400000FBECDBFDF91CF911F910F91FF90EF9055
:10141000DF90CF90BF90AF909F908F907F906F9014
:101420005F904F903F900895C6010196A6014E5FD0
:101430005F4FAECE883008F00895E091E900F0915A
:10144000EA00099490EC980F963098F480E490E0CC
:1014500049E450E0FA01E81BF90BDC01A151BF4F50
:101460002C91E152FF4F208301968634910591F72C
:1014700008959AEB980F9630C8F4809135018093C7
:10148000E200809136018093E100809137018093E2
:10149000E000809138018093DF00809139018093D2
:1014A000DE0080913A018093DD00089594EB980F5F
:1014B0009430B0F490913B019093DC0090913C010A
:1014C0009093DB0090913D019093DA0090913E0162
:1014D0009093D90070E0680F711D6035710509F0B7
:1014E00008950C94DB07FC0198E0AFEEB0E00190AA
:1014F0000D929A95E1F70895A898A9985093EA005B
:101500004093E9001092DF01FC012AEF30E0819165
:10151000D901A151BF4F8C932F5F3F4F211581E01F
:101520003807A9F7FB0180E290E02191DC01A1518D
:10153000BF4F2C93019686329105B9F7AA98A29ACB
:101540009FEF29E688E1915020408040E1F700C0FC
:1015500000001092EE001092ED0084EA82B985E45A
:1015600086BF7894AA9A08951F920F920FB60F9291
:1015700011242F933F934F935F936F937F938F9398
:101580009F93AF93BF93EF93FF9381B1E82FE87FD1
:101590008E2F90E0FC01E056F109E936F10598F054
:1015A00085E886BFFF91EF91BF91AF919F918F9199
:1015B0007F916F915F914F913F912F910F900FBE4F
:1015C0000F901F901895E65DFF4F0C9425138091A6
:1015D000ED009091EE00883008F48AC01092C700A8
:1015E0008091DF01E091ED00F091EE00E151FF4FBD
:1015F0008A3A99F0808183B98091ED009091EE0054
:1016000001969093EE008093ED008091C7008F5F6C
:101610008093C70085EC86BFC5CF8081E091ED0047
:10162000F091EE00E770FF27EF52FF4F2081E0912D
:10163000ED00F091EE00E770FF27E753FF4F908138
:10164000821B892783B9D8CF1092C80085EC86BF4A
:10165000A9CF8091C8008823D9F083B19091DF0190
:101660009A3A11F1E091ED00F091EE00E151FF4F57
:101670008083C2CF6091C7008091ED009091EE0011
:101680009091C700891B0E94220A85EC86BF8ACFF1
:1016900083B190E09093EE008093ED0081E0809321
:1016A000C8001092C700B6CF2091ED003091EE0037
:1016B000203F3105B9F22091ED003091EE00E0912C
:1016C000ED00F091EE00E770FF27E753FF4F4081F8
:1016D000E091ED00F091EE00E770FF27EF52FF4F31
:1016E00090818427890FF901E151FF4F808384CFD6
:1016F000E091E900F091EA00099570CFFF920F9315
:101700001F93CF93DF938C01C09825E32A95F1F7BF
:10171000000014161506F4F5F12CA0E0B0E0C1E0CD
:10172000D0E0A00FB11FE0E0F0E080E017C0C29A67
:10173000C19825E32A95F1F70000B39B06C09E01EE
:1017400001C0220F9A95EAF7822BC19A95E39A95E8
:10175000F1F700003196E830F10569F09E2F2C91E9
:1017600030E00E2E02C0359527950A94E2F720FD51
:10177000DECFC298DDCFE1E0FE16C1F06115710544
:1017800019F0FB018193BF01F394AF2DB0E0A417D2
:10179000B5073CF281E0C09AF5E8FA95F1F7000050
:1017A000DF91CF911F910F91FF9008958F3F31F7F7
:1017B00080E0F1CFAB9AA39AAC9AA49AA598AD9A7F
:1017C000A698AE9AAF9AA798DE9AD69AD098D19852
:1017D000D298D398D498D598D89AD99ADA9ADB9A8D
:1017E000DC9ADD9AC29ABA9ABB98C39AC19AB99AFE
:1017F000C09AB89A83B7816083BF8A98929A1092F0
:10180000EF011092F801109214021092150210923A
:10181000FE011092FD011092F1011092F001109260
:1018200000021092FF011092F3011092F20183E185
:10183000E6E1F2E0DF01982F1D929A95E9F7E1E0E9
:10184000F2E0DF011D928A95E9F71092F9011092FA
:10185000FA011092FB011092FC011092F401109217
:10186000F5011092F6011092F7010895EF92FF92A0
:101870000F931F93CF93DF93CDB7DEB7C057D10936
:101880000FB6F894DEBF0FBECDBFE1961FAE1EAE01
:10189000E197AF961FAE1EAEAF97AB9A55E35A9540
:1018A000F1F70000AB9885E38A95F1F7000020E09E
:1018B00030E040E061E0AC9895E39A95F1F70000E4
:1018C000483040F5E1968EAD9FADE197880F991FA6
:1018D000E1969FAF8EAFE19753B355FB552750F973
:1018E0005627852BE1969FAF8EAFE197AF968EADD1
:1018F0009FADAF97880F991FAF969FAF8EAFAF97F1
:1019000053B356FB552750F95627852BAF969FAFFB
:101910008EAFAF97220F331F81E090E09F9B02C0F4
:1019200080E090E0282B392BAC9AA5E3AA95F1F73B
:1019300000004F5F4C3009F0BECFE0968FADE097CE
:101940008093EF01AE968FADAE978093F801309300
:10195000FE012093FD011092F1011092F0018FEF32
:101960008FAB88AF8CAF8DAF8EAFDE9ADE9AD69AF2
:10197000FE01F796DF011A9680E4F82E55E35A959A
:10198000F1F7000049B339B329B309B319B379B3F7
:1019900069B3629566956695637050E8659FC0016E
:1019A00011244170542F582B3270432F452B247033
:1019B000322F342B902F9870292F232B812F807159
:1019C000982F922B872F8072892B81938BB38F2531
:1019D0008BBBEA17FB0791F638AD832F8C7091E033
:1019E00009F090E08091FF0190FB80F98093FF0166
:1019F0008CAD8F7009F025C28EAD90E080959095EA
:101A00008F70992721E0892B09F01DC2922F8091B8
:101A1000FF0190FB81F921E034FB992790F992278F
:101A200090FB82F99FA994FB442740F9422740FB91
:101A300083F995FB442740F9422740FB84F98093C2
:101A4000FF0181FFFCC18DAD82FB882780F928272B
:101A50008091FF0120FB85F98093FF0181FFEDC19B
:101A60002DAD2695217081E028278091FF0120FB74
:101A700086F98093FF0181FFDEC18DAD8095817075
:101A80004091FF0180FB47F94093FF01592F5170AE
:101A900021E052278091000250FB82F991FB5527EB
:101AA00050F9522750FB83F992FB552750F95227E2
:101AB00050FB84F993FB992790F9922790FB85F9C5
:101AC00035FB332730F9322730FB80F98093000251
:101AD00041FFAFC18DAD83FB882780F92827809116
:101AE000000220FB81F980930002AD961FAE1EAE6E
:101AF000AD97AB961FAE1EAEAB9740FFAEC1AC9696
:101B00008FADAC9780931402AA968FADAA9780935D
:101B1000150285E0E6E8F0E0DE01AC59BF4F019028
:101B20000D928A95E1F789E0EBE8F0E0DE01AD5A2D
:101B3000BF4F01900D928A95E1F789E0E4E9F0E06A
:101B4000DE01A65BBF4F01900D928A95E1F789E017
:101B5000EDE9F0E0DE01AF5BBF4F01900D928A9599
:101B6000E1F788E0E6EAF0E0DE01A45ABF4F019019
:101B70000D928A95E1F7FE0131967F0185E1DF0143
:101B80001D928A95E9F711E0198382E48A83809196
:101B9000EB008111FCC045E050E060E070E0CE0158
:101BA0008C599F4F0E947E0B8111CBC08E010E5D20
:101BB0001F4F83E1E6E1F2E0DF011D928A95E9F72C
:101BC0001AA21BA21CA21DA292988A9A12BE82B7C8
:101BD0008033E8F38A98929A12BE82B78031E8F394
:101BE00092988A9A12BE82B78033E8F38A98929AC2
:101BF00012BE82B78031E8F392988A9A12BE82B7F9
:101C00008033E8F38A98929A12BE82B78031E8F363
:101C100092988A9A12BE82B78033E8F38A98929A91
:101C200012BE82B78031E8F392988A9A12BE82B7C8
:101C30008033E8F38A98929A12BE82B78031E8F333
:101C400092988A9A12BE82B78033E8F38A98929A61
:101C500012BE82B78031E8F392988A9A12BE92B788
:101C60009033E8F38A98929A12BE92B79031E8F3D3
:101C700092988A9A12BE92B79031E8F38A98929A13
:101C800012BE92B79033E8F392988A9A12BE92B736
:101C90009031E8F38A98929A12BE92B79032E8F3A4
:101CA000F701D70112BE03C092B7903FE0F58299C9
:101CB000FBCF12BE03C082B7803FA8F5829BFBCF4B
:101CC00082B78D93A017B10769F78AA19BA1ACA138
:101CD000BDA19E012F5D3F4F119141E050E060E0BA
:101CE00070E0103218F040E050E0BA01880F991F00
:101CF000AA1FBB1F842B952BA62BB72BE217F3072C
:101D000059F78AA39BA3ACA3BDA381958AA38AA1FB
:101D10009BA1ACA1BDA18093F9019093FA01A0937E
:101D2000FB01B093FC01C059DF4F0FB6F894DEBF42
:101D30000FBECDBFDF91CF911F910F91FF90EF901C
:101D4000089549E050E060E070E0CE018D5A9F4F69
:101D50000E947E0B882309F429CF49E050E060E01F
:101D600070E0CE01865B9F4F0E947E0B882309F4B2
:101D70001DCF48E050E060E070E0CE01845A9F4FF4
:101D80000E947E0B882309F411CF1093EB008E0183
:101D90000E5D1F4F45E150E0B801C7010E947E0B68
:101DA000882309F452C08BA1833709F485C0909130
:101DB000280291609093280221E0982F907F90371D
:101DC00009F020E09091280220FB91F990932802DD
:101DD00021E0893709F020E09091280220FB92F958
:101DE0009093280291FF34C08FA180588FA388A5BB
:101DF000805888A789A5805889A78AA580588AA76E
:101E000092FD07C0FE01BB968CE0DF011D928A9512
:101E1000E9F78DA180958DA38EA180958EA382E197
:101E2000FE01B596A6E1B2E001900D928A95E1F728
:101E3000C7CE20E054CE80E023CE20E016CE20E0B6
:101E400007CE90E0E4CD20E0E1CD1092EB00B1CEE2
:101E50001FA218A619A61AA6D3CFD49AD29AD39A9B
:101E6000DA9A85E38A95F1F70000DA9895E39A9576
:101E7000F1F7000038E041E0DB98A5E3AA95F1F71F
:101E80000000AD968EAD9FADAD97880F991FAD96B2
:101E90009FAF8EAFAD9729B3269521702427822B53
:101EA000AD969FAF8EAFAD97DB9A315029F7DA9A96
:101EB000D298D398D49823CE45E050E060E070E00B
:101EC000CE018C599F4F0E947E0B882309F471CE5E
:101ED00049E050E060E070E0CE018F5B9F4F0E94D0
:101EE0007E0B882309F465CE48E050E060E070E0A6
:101EF000CE01845A9F4F0E947E0B882309F459CE4D
:101F000045E150E0B801C7010E947E0B882309F427
:101F10009CCF8BA14CCF969897988E9A8F9A0E94BF
:101F2000DA0B80E090E00E944C138093AE00809129
:101F3000AE00833010F01092AE0047EC55E060E642
:101F400070E080E890E00E947C0A81E08093AF001E
:101F50009FE088E10FB6F894A89581BD0FBE91BDB2
:101F6000D3E06D2E1EE1C12ED12C8091AF008230C6
:101F700009F4A7C20E94360CA091EF01A7FD73C21D
:101F80008091F80187FD6FC28091140287FD6BC2BA
:101F9000B091FD01B3FD69C28091FF0184FD65C26E
:101FA0008091FC0187FD39C39091170295FB222790
:101FB00020F92093BA00A6FD61C22091F80126FD08
:101FC0005DC22091140226FD59C23091FE0133FDFD
:101FD00018C32091FF0123FD14C386FD12C396FB95
:101FE000222720F92093B900B2FD4FC22091FF01B2
:101FF00026FD4BC294FB222720F92093B80032FD26
:1020000049C22091FF0122FD45C2292F221F22270C
:10201000221F2093B700B1FD42C22091FF0125FD90
:102020003EC27090FB0175FCEAC292FB222720F9A8
:102030002093B300B0FD3AC22091FF0127FD36C2C4
:1020400074FC34C293FB222720F92093B200A5FD33
:1020500008C22091F80125FD04C22091140225FD3B
:1020600000C231FDFEC12091000221FDFAC1209184
:10207000160221702093B600A4FD87C12091F801BB
:1020800024FD83C12091140224FD7FC130FD7DC158
:102090002091000220FD79C184FD77C120911602B4
:1020A00023FB222720F92093B50085FD73C1292F3A
:1020B00021702093B100969591709093B00083FDAC
:1020C00072C1D0911602D295D1706D2F82FD70C170
:1020D000C0911602C6FBCC27C0F94C2F81FD6DC103
:1020E000F0911602FF1FFF27FF1F2F2F80FD6AC1EF
:1020F000E0911602E5FBEE27E0F98E2F1091AE007D
:10210000112309F466C11091AE00123009F461C1C7
:10211000D093BC00C093BB00F093BE00E093BD0021
:102120008091AE00882309F4CFC18091AE00813048
:1021300009F4CAC1E0E0F0E0C0E0D0E000E010E067
:10214000A12CB12C8091FA0140E584029001112468
:10215000233E5FEF35070CF424C2C901B6010E948B
:1021600011136C177D0744F0C901B6010E941113C9
:102170005B01EB0177FD4CC28091F90190E589028A
:1021800090011124233E4FEF34070CF412C2C90111
:10219000B6010E9411136E177F0744F0C901B60102
:1021A0000E9411138B01FB0177FD2DC271FA2224CD
:1021B00020F8312C61E8A10164039001659F300D86
:1021C000112470FA882480F8912CA4015695542F7C
:1021D000442757954795CA0188199909A901480FBD
:1021E000591F73FA442440F8512C92016203C00134
:1021F000639F900D112472FAEE24E0F8F12C970100
:102200003695322F2227379527952E193F09280F0B
:10221000391F80911A02082E000C990BBC0197FD02
:10222000DFC16C177D070CF4C50160911B02062EFF
:10223000000C770BDB0177FDCEC1AE17BF070CF4A6
:10224000B801E09118020E2E000CFF0BEA0157FDB9
:10225000BDC1DF01F7FDB5C1AC17BD070CF4FA0134
:1022600040911902042E000C550BE90137FDC2C143
:10227000DA0157FDBAC1AC17BD070CF4A9018038CB
:1022800091050CF08CC181382FEF92070CF481E896
:10229000603871050CF081C161383FEF73070CF4B1
:1022A00061E8E0389FEFF90709F4E1E840382FEFE3
:1022B000520709F441E88093C4006093C300E0939F
:1022C000C2004093C1008FE99FE00197F1F700C081
:1022D00000008091B500882309F4EAC08091BA001B
:1022E000882309F4E5C08091B900882309F4E0C08F
:1022F0008091C5009091C60001969093C60080938E
:10230000C500843F914008F430CE8091AE0090E04B
:10231000019663E070E00E9411138093AE0060911B
:10232000AE0080E090E00E94541396983FEF43ED9A
:1023300050E3315040405040E1F700C00000809130
:10234000AE0080E0969A6FEF93EC29E061509040E8
:102350002040E1F700C0000096983FEF43EC59E0C1
:10236000315040405040E1F700C000008F5F909135
:10237000AE00981738F79DE088E10FB6F894A8955D
:1023800081BD0FBE91BDF894FFCF21E02093B50031
:1023900085FF8DCE21E02093B100969591709093AA
:1023A000B00083FF8ECED1E061E070E082FF90CE7E
:1023B000C1E041E050E081FF93CEF1E021E030E068
:1023C00080FF96CEE1E081E090E01091AE00111127
:1023D0009ACEA3FDE0C0E091F801E3FDDCC0E091FE
:1023E0001402E3FDD8C0B7FDD6C0D0910002D2FBE5
:1023F000DD27D0F9D62BA2FDCCC06091F80162FD9B
:10240000C8C06091140262FDC4C0B6FDC2C0C091D4
:102410000002C3FBCC27C0F9C42BA1FDB8C040917A
:10242000F80141FDB4C04091140241FDB0C0B5FDBA
:10243000AEC0F0910002F295F170F22BA0FDA4C0A5
:102440002091F80120FDA0C02091140220FD9CC025
:10245000B4FD9AC0E0910002E5FBEE27E0F9E82B1D
:1024600057CE21E007CEB091FD018091FC0121E023
:10247000909117022093BA00A6FF9FCD3091FE01E4
:1024800021E02093B900B2FFB1CD21E02093B80044
:1024900032FFB7CD21E02093B700B1FFBECD21E0E0
:1024A0007090FB012093B300B0FFC6CD21E0CDCDED
:1024B0001092C6001092C5008091AF00823009F0E2
:1024C00059CD6092AF0056CDA3FD5BC08091F8015D
:1024D00083FD57C08091140283FD53C0B7FD51C0E6
:1024E0008091000282FD4DC000E010E0A2FD44C0DA
:1024F0008091F80182FD40C08091140282FD3CC0B1
:10250000B6FD3AC08091000283FD36C0EE27FF275A
:10251000E01BF10BA1FD2BC08091F80181FD27C0CC
:102520008091140281FD23C0B5FD21C0809100027D
:1025300084FD1DC0A12CB12CA0FD13C08091F80119
:1025400080FD0FC08091140280FD0BC0B4FD09C056
:102550008091000285FD05C0CC27DD27CA19DB0963
:10256000F1CDCFE7D0E07FE7A72EB12CEBCDC1E8CE
:10257000AC2EBB24BA94E0CFEFE7F0E00FE710E019
:10258000C9CF01E81FEFB2CFE1E0E82BC1CDF1E008
:1025900054CFC1E041CFD1E02DCF6FE782CE8FE79E
:1025A00077CE60EB8602C0011124B6010E941113A0
:1025B000D8CD50EB8502C0011124B6010E94111341
:1025C000EACDAA27BB27AE1BBF0B46CECC27DD2703
:1025D000C41BD50B3ECEAA27BB27A61BB70B2DCEFF
:1025E00066277727681B790B1CCEAA27BB27A41B5D
:1025F000B50B41CECC27DD27C21BD30B39CE21E052
:1026000017CD21E0EFCCEE27FF27E61BF70BCECD51
:10261000CC27DD27C61BD70BAFCD21E09091170249
:10262000C8CC97FB072E16F4009407D077FD09D08D
:102630000E942B1307FC05D03EF4909581959F4F87
:102640000895709561957F4F0895EE0FFF1F0590D7
:10265000F491E02D0994AA1BBB1B51E107C0AA1FEE
:10266000BB1FA617B70710F0A61BB70B881F991F33
:102670005A95A9F780959095BC01CD010895FB016D
:10268000DC0104C08D910190801921F4415050402B
:10269000C8F7881B990B0895E199FECF9FBB8EBBAD
:1026A000E09A99278DB30895262FE199FECF9FBB1D
:1026B0008EBB2DBB0FB6F894E29AE19A0FBE01963D
:0626C0000895F894FFCF1D
:1026C6000000000000000000000000000000000004
:1026D60000000000000000000000000000000000F4
:1026E6000000A42001010143000100014400010390
:1026F60000000000014D000001FFFFFFFF014F0039
:0E270600FFFF0300000001430000FFFFFFFF84
:04000005008000B5C2
:00000001FF
