:100000000C943F050C945C050C945C050C945C0509
:100010000C945C050C945C050C945C050C945C05DC
:100020000C945C050C945C050C945C050C945C05CC
:100030000C945C050C945C050C945C050C945C05BC
:100040000C945C050C94270D0C945C050C945C05D9
:100050000C945C05A877A6E0F7435A3585E27297C1
:100060008FB71A6287380D67C7BE4F3E2076378F2D
:1000700068B7A9263F2B10E3307E900E850A705199
:100080000386400D4FEB3ECCD18735BDF50B5ED0DE
:10009000F8F2D5E26C310CADFC21C378C106C24C3C
:1000A00055E64A3448111EDAE71A84A096A7E37F82
:1000B000AF639CFA235B79C89EBAB2C922124BB3D4
:1000C000A1B63249A2E189391066C5078F54EA9179
:1000D000CA3FF919F0D746BC281B61E82F6AAE9DCC
:1000E000F64E0914774DDB1F2E7B7CF143A300B83D
:1000F000138C85B9297588FDD2561C509741E53B74
:1001000060B5C064EE98D62D25A4AACD7DA883C67F
:10011000ABBE4499263CCE9FBFD3CB767A7E82017C
:100120008A9A801D0EB05CD43862F430E08E53B7EA
:100130000257ACA6520A6D9265172433457274B10A
:10014000B4F75DED2CFF47375A90BBDF2A1659955F
:10015000D9C4276773C768FEA5DD6B5F93D8EC052C
:100160003A8D6EFB3DA96936F394DEEF156F8B9BDC
:10017000080FDC81182004E471CFE92B425801A05C
:10018000A962D63F85A7B6D4FA15661709BD5D14D6
:10019000342659729154064FF8B05B7493998CF2DF
:1001A00045CDEA4EAD104AE5CAEEDFC66F9F888E98
:1001B00002CC08A877946D21B128E4397996607152
:1001C00081162EE678B9C4469A42AEB77C43B32274
:1001D0001A86C2323D2D9CD229E9639BD131385E0B
:1001E0001E3641BB03182B3EBF6861FC52C0DEE0E7
:1001F0000A58135A00BE1C900E5312FDE26EBACE7E
:100200002427447F87A3A1D55040E3F983F7C7A2F1
:1002100035C8DB19AB2F1125ED339E55E148AF737F
:1002200084DA2AAA51EB9D95B2CBE77080FE4C652B
:1002300004EFC5F1C33AB4F55F2389DD30A58BD354
:10024000F6DC4D64D7F08FEC56375CA40D07768A48
:100250002C0BB5D8C11FE83BF44B1B476C49677B9F
:1002600092CF757E20D97D3C977AD0056B0F1DFB10
:100270008298578DF36ABCACC9A6FFB8690C4C4D87
:1002800072075A49338DA2AB463D630DA097FFF02C
:10029000F5FAC0E9DB62E4E17443DC86182937F43F
:1002A00006E2ED6F90481E2D1DEA739454DF25F68B
:1002B0004727D91177C9841C5B5C5181A6223E2453
:1002C00096C88AEC827C09B8454A57BB2F50758E78
:1002D00061708C6CAFD0FDB41BAEDEFE3BB536BD9D
:1002E00055010E9C41565FB3260383BA134BCAC512
:1002F0000AF860A5B9C7C39832FB12F9A792AA6899
:10030000F3787E05202102E8BFF2B0598FD2CB8767
:100310006515F11AB230ADEE58A38B661F2CD75D70
:100320001985A8E6D36BA10C91936A5E0B79E3DD86
:10033000004F3C896E7169A9AC40E59928C6314EE1
:100340007ACD089E7DEF17FC88D8A46D4495D1B76F
:10035000D49BBE2A34642BCF2EEB38CE23E03A3F19
:10036000F77B9F1053BC526716E7807604C4B6C172
:10037000C27F9ADAD53942149DB10F35D6CCB9DA9D
:10038000380CA29C091F06B1B6FD1A692330C4DEE1
:1003900001D1F45829371C7DD5BFFFBDC8C9CF6531
:1003A000BE7B7897986708B32657F7FA40AD8E75ED
:1003B000A67CDB918B5199D4177A908DCE63CB4E6E
:1003C000A0AB183A5B507F2174C1BBB8B7BA0B35EC
:1003D0009531599A4D04071E5A7613F37183D086CE
:1003E00003A83942AA28E6E4D85DD3D06E6F96FB05
:1003F0005EBC56C25F859BE7AFD23B846AA753C5FC
:100400004449A5F936723D2CD91BA1F54F939D683F
:10041000474116CA2A4CA387D6E5192E77156D7069
:10042000C0DFB20046EDC66C4360922DA922458F15
:100430003455AEA40A6632E0DC02ACE8208C896256
:100440004AFEEEC3E33CF17905E9F62733CCF29E90
:1004500011817E80108A829F480DD7B4FC2FB5C7CA
:10046000DD88146B2B54EA1D945CB0EF1224CDEBA5
:10047000E1E264733F0E5261253EF80F4BECC00081
:1004800030F602493D106E20C9A62FFE2C2B752E8A
:100490004526AB48A980FC04CCD3B5BAA338317D3E
:1004A00001D9A77B96B663694EF7DEE078CA50AAF9
:1004B00041916588E42185DA3A27BE1C3E425E17E9
:1004C000527F1F89246F8F5C67740E12878DE93409
:1004D000ED73C4F8615B05DF594C97798318A45517
:1004E00095EBBD53F5F15766469FB28109518622BF
:1004F00016DD23937629C2D71DD4BF363FEA4B11B0
:1005000032B9625460D66D439A0D929CB0EF586C2C
:100510009D772D70FAF3B30BE2407EF48AE58C3CB4
:100520005671D164E1820ACB131590EC0399AF1494
:100530005D0F334A94A5A8351BE36AC628FF4DE733
:100540002584AC08AEC5A22AB8370C7AA0C3CEADBC
:10055000061A9E8BFBD5D0C11ED0B49BB144F24786
:10056000C768CF72BB4F5AF9DC6BDBD2E87CC8EEB0
:1005700098A1E6D839075FFD8E19B73BBCCD7CE367
:100580008173B211BF6F2098FE7596EF6CDA50E15F
:1005900009725445BA34805BED3E532C87A457F35F
:1005A000333F3CB767B4A325604F076B1B47150F5C
:1005B000E40AEAD1327836498D4BD2BCA5DC1D0D58
:1005C0004DCD9A825FFC9465BEE2F4C91E44CB9E79
:1005D0000C64712663B314E840708A0E19426DAC46
:1005E00088105CDF41A9ADE5FB74CCD5068E598639
:1005F000CE1F3D76E08FB977277BA6D829D3ECB8FC
:1006000013F7FAC3516ADE4A5AEBC28B234892CFE2
:1006100062A899F8D02E856143C8BDF00593CA4EF3
:10062000F17D30FDC469662F08B152F921E67A2BBD
:10063000DD3984FFC091D637D47F2D9B5DA13B6E01
:10064000B5C54604F590EE7E831C0356B6AA001786
:10065000013555790B12BB1A31E7022816C1F6A2F3
:10066000DB189C89683897ABC72AD73AF2C6244C66
:10067000B058A0225E9DD9A7E9AEAF8C959F28B750
:1006800020D7B030C30919C067D6003C7EE7E9F433
:10069000085AF8B82E05A6259E5CD8150DE1F6116E
:1006A000546BCD2146665E84AD06382944C5A2CE82
:1006B000F1AAC1407186B5EFFC36A8CB0A482745A0
:1006C00064A3AF8CB2C69F0789DC17D34979FBFEC0
:1006D0001DD0B9884352BC01782B7D94C70EDEA58E
:1006E000D59BCCF7617AC274813903AB96A037BD34
:1006F0002D72753FC9D48E6FF98DED62DB1CDF045E
:10070000AC1B6C144B63D0BFB482EC7B1A5992D2F1
:100710001060B63D5FE6806E70C4F235D97CEEE5C0
:1007200041A45B50DDBB4CF31F9D5D57555197E3D2
:1007300058424D9C73BAC877316926AEEA8ADA22EC
:10074000B38756FA930B341633E8E453BEA9B13A93
:100750003EF5906ACF3B12FD8F9AA7479199EB0F18
:1007600024FF2318854E7F0CE0A1D2D12C2A4A0207
:100770004F1E95688B98836D76CA6532132FC3829E
:100780009AA4BA8160373435FC80A8516567ED3092
:100790005F10D34A272F13B92AD2CCE1EFAEEBBEBC
:1007A000F4BDCF43B3C58884B7DD3940CE486D9BD7
:1007B00072617EE7A14E532E773BE2C936221B6E53
:1007C00073B103B24C87A9D44D0FD8156CAA18F693
:1007D00049575DFB7A149463A011B09EDE0546C8AC
:1007E000EE47DBDC24899C919729E97BC1071EB881
:1007F000FDFEACC662984FF179E0E86B7856B68D95
:10080000045086CA6F20E6EAE576171C747FBC0D9B
:100810002C85F76696E48B753F4BD938AF7CDA0BA5
:10082000832D3132A2F51D594145BF3C1FF8F98A8D
:10083000D016256912999D2195AB01A6D7B5C07D2B
:10084000FF580E3A92D155E3089FD63E528EFAA336
:10085000C702CDDF8F64198CF3A70C5E0A6A09F01A
:10086000935B42C20623EC71ADB4CBBB7028D51AA2
:100870005C33685A004490A5C4263D2BF25496ADD3
:10088000DA1FED33E18169080D0ADB35779A64D10F
:10089000FC78AA1BD067A0DDFA6C63710584176A27
:1008A000894F667FC65055926FBDE7D240728DBBAF
:1008B000EC06428AE4889D7E7A822713411AAFC8EB
:1008C000A476B4C2FE6D1CD96130B37CEAF7290F5F
:1008D000F23B51C1DE5FE52A2F990B5DA32B4AAB9A
:1008E00095A5D35856EE283100CC1546CAE6863871
:1008F0003C65F5E39FD65B094983702D53A97DE2E2
:10090000C4AC8E5EB825F4B957F3F16847B2A2596A
:1009100020CE34795C900E1EBED52223B1C9186258
:10092000162E913E078FD83F933DD49BDF8521FB48
:10093000117497C7D7DC4C194598E943024BBCC3E7
:10094000049C6BF07552A726F6C5BACFB0B7AE5A65
:10095000A1BF038B80126E0CEBF9C04424EF10F89A
:10096000A88CE87BFF9E2CCD603687B594A6547387
:100970003A144E011DB6FD37484D39CBE032000028
:100980000000000000000000000000000000000067
:100990000000000000000000000000000000000057
:1009A0000000000000000000000000000000000047
:1009B0000000000000000000000000000000000037
:1009C0000000000000000000000000000000000027
:1009D0000000000000000000000000000000000017
:1009E0000000000000000000000000000000000007
:1009F00000000000000000000000000000000000F7
:100A000000000000000000000000000000000000E6
:100A100000000000000000000000000000000000D6
:100A200000000000000000000000000000000000C6
:100A300000000000000000000000000000000000B6
:100A400000000000000000000000000000000000A6
:100A50000000000000000000000000000000000096
:100A60000000000000000000000000000000000086
:100A70000000000000000000000000000000112441
:100A80001FBECFE5D4E0DEBFCDBF10E0A0E6B0E0F2
:100A9000E6EAFCE102C005900D92A638B107D9F74D
:100AA00011E0A6E8B0E001C01D92AE3AB107E1F74F
:100AB0000E94DC060C94510E0C940000D89840E083
:100AC00020E030E052E4D998852F8A95F1F789B378
:100AD0008695869590E081709070022E02C0880FF6
:100AE000991F0A94E2F7482BD99A852F8A95F1F736
:100AF0002F5F3F4F2830310531F7D89A842F089562
:100B0000DC9840E050E020E030E062E4DD98862FA1
:100B10008A95F1F789B3829586958695837090E0E2
:100B200081709070022E02C0880F991F0A94E2F71C
:100B3000482B592BDD9A862F8A95F1F72F5F3F4F6F
:100B40002031310519F7DC9ACA0108959C018B9A6E
:100B500012BE82B78C33E8F38B9812BE82B7843111
:100B6000E8F38B9A12BE82B78C33E8F38B9812BEEF
:100B700082B78431E8F38B9A12BE82B78C33E8F3E4
:100B80008B9812BE82B78431E8F38B9A12BE82B77B
:100B90008C33E8F38B9812BE82B78431E8F38B9ADA
:100BA00012BE82B78C33E8F38B9812BE82B78431C1
:100BB000E8F38B9A12BE82B78C33E8F38B9812BE9F
:100BC00082B78431E8F38B9A12BE82B78C33E8F394
:100BD0008B9812BE82B78431E8F38B9A12BE82B72B
:100BE0008431E8F38B9812BE82B78C33E8F38B9A8A
:100BF00012BE82B78431E8F38B9812BE82B7883276
:100C0000E8F3F90120E030E0108240E050E012BE4D
:100C1000839B07C082B7803FD8F320E030E0C90152
:100C2000089512BE839904C082B7803FD8F3F5CFF0
:100C30009081990F908382B7843278F04F5F5F4F35
:100C40004830510521F72F5F3F4F31962430310551
:100C5000D9F621E030E0C901089591609083EECF8C
:100C60009F92AF92BF92CF92DF92EF92FF920F933B
:100C70001F93DF988AEF90E0FC013197F1F793B270
:100C800003B3E3B2C3B2A3B263B3DF9A0197F1F740
:100C9000B3B383B323B343B3E3B3A3B3AA1FAA2766
:100CA000AA1FA295AA0FA07EB695B695B170AB2BE0
:100CB00086958695869590E081709070880F991F33
:100CC000A82B22952F7030E021703070220F331F37
:100CD000220F331FA22B42954695477050E041707A
:100CE0005070440F551F440F551F440F551FA42B20
:100CF000E295E695E695E370F0E0E170F070E2953C
:100D0000F295F07FFE27E07FFE279A2F9E2B80E052
:100D1000661F6627661F6295660F607E969496949E
:100D200021E09222692906950695069510E001704A
:100D30001070000F111F602BE294EFE0EE22FF24F1
:100D400021E0E222FF24EE0CFF1CEE0CFF1C6E29BA
:100D5000C294C69457E0C522DD2421E0C222DD24DE
:100D6000CC0CDD1CCC0CDD1CCC0CDD1C6C29A29445
:100D7000A694A69433E0A322BB2421E0A222BB24A4
:100D8000A294B29420EFB222BA24A222BA246A29F1
:100D900070E0682B792BCB011F910F91FF90EF90A2
:100DA000DF90CF90BF90AF909F900895C49A10921B
:100DB00087001092860008952F923F924F925F9283
:100DC0006F927F928F929F92AF92BF92CF92DF925B
:100DD000EF92FF920F931F93DF93CF93CDB7DEB7C0
:100DE0002A970FB6F894DEBF0FBECDBFBC9ABB9A50
:100DF000C49A83B7816083BF8B989398D49AD59A0D
:100E0000DE9AD09AD19ADA9AD79AA298A398A498FF
:100E1000A598A698A798AA9AAB9AAC9AAD9AAE9ABA
:100E2000AF9A8FE58D838FED8E838FE88F83188641
:100E30008FEF89878A87A5E06A2E712C6C0E7D1E44
:100E400080E690E0B30146E650E026ED36E00E94F1
:100E5000470A4E010894811C911CFFE55F2EEFEDBF
:100E60004E2E7FE8372E22242A9468E0A62EB12C3D
:100E70005D824E823F82188629862A86C398F8941E
:100E8000C4010E94A6057894892B09F0C4C1CC2422
:100E9000DD24EE24FF240E948005BC0141E050E0E7
:100EA00016C02230310509F497C1233031050CF00A
:100EB00046C02115310509F49BC12130310509F4E3
:100EC00093C1403151050CF049C04F5F5F4F9A010B
:100ED00021503040CB01022E02C0969587950A948E
:100EE000E2F780FDEECFC39A2530310509F468C1E1
:100EF00026303105B4F22830310509F471C12930AA
:100F0000310574F42630310509F44EC1273031051E
:100F1000C1F689858F7789872EE1C22ED12CD5CF56
:100F20002A30310509F43CC12A3031050CF450C196
:100F30002B30310531F689858D7F8987C6CF2330E7
:100F4000310509F439C12430310509F0BACF8A8559
:100F50008E7F8A87FEE1EF2EF12CB7CF0E945E05CF
:100F6000682F70E041E050E016C0C39A233031058D
:100F700009F4FCC1243031050CF0EAC02130310500
:100F800009F408C2223031050CF43AC289858F7EFB
:100F900089874F5F5F4F9A0121503040CB01022E6D
:100FA00002C0959587950A94E2F780FFDECF48301E
:100FB00051057CF300E010E00E943006BC018F7008
:100FC0009070892B09F05AC0023011050CF456C0FC
:100FD00045E050E00DC02430310509F4DCC0253077
:100FE000310509F4D3C04C30510524F54F5F5F4FF4
:100FF0009A0121503040CB01022E02C09695879570
:101000000A94E2F780FDEFCF2830310509F4B9C02A
:101010002930310504F32A30310509F4A8C02A30FB
:1010200031050CF4A9C02B303105E9F689858F7E96
:101030008987C39A0F5F1F4F0430110509F0BCCF99
:101040008D818C0D8D838E818E0D8E83C3010E94C8
:101050003E0A82E48A95F1F780918600909187009C
:1010600001969093870080938600809186009091EE
:1010700087000A970CF4FCCEC498FACE41E050E009
:101080001AC02530310509F450C0263031051CF551
:101090002130310509F453C02430310509F44AC028
:1010A000232BA9F48A858E7F8A87C39ABEE1EB2E13
:1010B000F12C4F5F5F4F9A0121503040CB01022E3F
:1010C00002C0969587950A94E2F780FFDACF4E30FA
:1010D00051057CF3AFCF2B303105F9F02C303105C1
:1010E00064F42A30310599F78A858D7F8A87C39AFF
:1010F000F2EECF2EFFEFDF2EDCCF2C30310541F0AA
:101100002D30310521F78A858F7E8A87C39A92CF49
:101110008A858F7B8A87C39ACCCF89858F77898789
:10112000C39AEEE1CE2ED12CC4CF89858B7F8987DF
:10113000C39ABFCF8A858F7D8A87C39ABACF8985A4
:101140008F7B8987C39AA2EEEA2EAFEFFA2EB1CF3A
:101150002530310509F416C1253031050CF04CC09D
:101160008A858E7F8A879EE1E92EF12C12CF8985B0
:101170008F7D8987C39A3ACF8A85877F8A87C39A6A
:1011800035CF89858D7F8987C39A30CF89858B7FBD
:101190008987C39A2BCF8A858F7D8A87C39A26CF6A
:1011A00089858F7D898791CE8A858D7F8A8732EE6A
:1011B000C32E3FEFD32E89CE89858B7F898785CE3D
:1011C00089858F7B8987E2EEEE2EEFEFFE2E7DCEB6
:1011D0008A85877F8A8779CE89858F7E898775CE34
:1011E0008A858F7E8A8771CE8A858F7D8A876DCE2C
:1011F0008A858F7B8A8769CE2630310509F4BAC08B
:101200002730310509F0D3CE89858F7789871EE194
:10121000C12ED12CCFCE8981682F70E041E050E003
:1012200016C0C39A2330310509F4E2C024303105D9
:101230000CF091C02130310509F4DEC022303105B7
:101240000CF4E5C08A858F778A874F5F5F4F9A01DC
:1012500021503040C501841B950BFB0102C0F59560
:10126000E7958A95E2F7E0FDDCCF483051056CF355
:101270008A81682F70E041E050E00DC022303105D6
:1012800009F49FC02330310509F497C04830510557
:101290004CF54F5F5F4F9A0121503040C501841BD0
:1012A000950BFB0102C0F595E7958A95E2F7E0FF03
:1012B000EDCFC39A2430310509F47BC025303105C8
:1012C000ECF22630310509F469C0263031050CF402
:1012D0006CC027303105D1F68D81806C8D838E8175
:1012E000806C8E838B81282F30E02038310514F0FC
:1012F000205031408C81E82FF0E0E038F10514F007
:10130000E050F140C901880F991F820F931F9C0183
:10131000220F331F220F331F280F391F220F331FB5
:10132000C90160E570E00E941D0E6B01CF01880FBE
:10133000991F8E0F9F1F9C01220F331F220F331FF7
:10134000280F391F220F331FC90160E570E00E948A
:101350001D0E7B01A0CD2530310509F445C0253097
:1013600031059CF58A858E7F8A876FCF89858B7F33
:1013700089870FCE8A858D7F8A8702EEC02E0FEF78
:10138000D02E07CE89858F7B898782EEE82E8FEF5E
:10139000F82EFFCD8A858F7B8A87FBCD8D818F7359
:1013A0008D838E818F738E8374CF8F81807E8F83A8
:1013B00070CF8F818F618F836CCF89858D7F898777
:1013C00068CF89858F7D898764CF2630310541F0CC
:1013D0002730310509F049CF89858F77898748CF34
:1013E0008A858D7F8A8731CF89858F7B89872DCFAD
:1013F00089858B7F898729CF8A858F7B8A8725CFAF
:10140000232B09F0D4CD8A858F7E8A87C2CD232BEA
:1014100009F02BCF8A858F7E8A8717CF1092AB0178
:101420001092AA01880F82B985E486BF7894089546
:10143000882319F485E886BF089585EC86BF089552
:10144000282F30E070E088E090E0861B970BA90120
:1014500002C0440F551F8A95E2F7CA0102C03595B4
:1014600027956A95E2F7822B0895863008F0089553
:10147000E0918800F091890009950895AAEAB0E00A
:10148000FC0186E001900D928150E1F708950F93E1
:101490001F93182F092F3093890020938800AAEA00
:1014A000B0E0FB0186E001900D928150E1F71092CF
:1014B0009A01812F902F9C01D9012AEF30E08D9164
:1014C000F901E655FF4F80832F5F3F4F81E02030C9
:1014D0003807A9F7DA0120E230E08D91F901E655ED
:1014E000FF4F80832F5F3F4F26323105B1F7A89819
:1014F000A9981092AB011092AA0184EA82B985E4FE
:1015000086BF78941F910F9108952F923F924F922A
:101510005F926F927F928F929F92AF92BF92CF9283
:10152000DF92EF92FF920F931F93DF93CF93CDB78C
:10153000DEB76A970FB6F894DEBF0FBECDBF44E5A5
:10154000642E40E0742E88249E01295F3F4F388F1F
:101550002F8B3DE0232E312C2C0E3D1E28E0422EF9
:10156000512CDE011196F30184918D9331964F89B0
:10157000588DA417B507C1F780E090E0FC01E6574D
:10158000FF4FE081F0E0E258FF4FE491D101A80F56
:10159000B91FEC9301968A30910581F7AA88CF8410
:1015A00029812A2530E04C2D477050E09E88B9886B
:1015B000C201841B950BB90102C0660F771F8A9583
:1015C000E2F7CB0102C0359527954A95E2F7822BC9
:1015D00089198B258F83EE84DD842A812E2530E0C6
:1015E0004D2D477050E0AC89C201841B950BF90169
:1015F00002C0EE0FFF1F8A95E2F7CF0102C03595BA
:1016000027954A95E2F7822B8A198A278887EB89E2
:101610002B812E2730E00D89077010E0B201601B8E
:10162000710BC901062E02C0880F991F0A94E2F7B8
:10163000002E02C0359527950A94E2F7822B8C196B
:101640008D2589872C812B2530E04A2F4770842FE8
:1016500090E09A8F898FD888C201498D5A8D841B5A
:10166000950BA90102C0440F551F8A95E2F7CA01E4
:10167000098C02C0359527950A94E2F7822B8D19C3
:101680008C258A878D81E826FF24E770F0E0C2016F
:101690008E1B9F0B970102C0220F331F8A95E2F722
:1016A000C90102C0F594E794EA95E2F78E298D19F5
:1016B0008B258B878E81A827B0E0AD0102C0440F37
:1016C000551F6A95E2F7BA0102C0B595A7950A952C
:1016D000E2F76A2B6A1969256C87CE01079664E9DF
:1016E00070E046E050E00E94440E009749F0839479
:1016F00066E070E0660E771E77E0871609F031CF5E
:10170000282D30E02F5F3F4F522F442780919800C3
:10171000FA01E80FF11DE258FF4F94912F5F3F4F00
:10172000322F222780918D00F901E80FF11DE25838
:10173000FF4FE491E927E0939A0080919600FA0127
:10174000E80FF11DE258FF4F949180918F00F9014D
:10175000E80FF11DE258FF4FE491E927E0939B0069
:1017600080919900FA01E80FF11DE258FF4F949122
:1017700080919100F901E80FF11DE258FF4FE491CB
:10178000E927E0939C0080919400FA01E80FF11D95
:10179000E258FF4F949180918C00F901E80FF11D00
:1017A000E258FF4FE491E927E0939D008091950076
:1017B000FA01E80FF11DE258FF4F949180918E00DD
:1017C000F901E80FF11DE258FF4FE491E927E0939A
:1017D0009E0080919700FA01E80FF11DE258FF4F3B
:1017E000949180919300F901E80FF11DE258FF4FA9
:1017F000E491E927E0939F0080918A00FA01E80FC5
:10180000F11DE258FF4F949180919000F901E80F8B
:10181000F11DE258FF4FE491E927E093A000809189
:101820008B00FA01E80FF11DE258FF4F949180916F
:101830009200F901E80FF11DE258FF4FE491E9270A
:10184000E093A10080919400FA01E80FF11DE258A5
:10185000FF4F949180918B00F901E80FF11DE25840
:10186000FF4FE491E927E093A20080919900FA01EB
:10187000E80FF11DE258FF4F949180918E00F9011D
:10188000E80FF11DE258FF4FE491E927E093A30030
:1018900080919700FA01E80FF11DE258FF4F9491F3
:1018A00080918A00F901E80FF11DE258FF4FE491A1
:1018B000E927E093A40080919600FA01E80FF11D5A
:1018C000E258FF4F949180919300F901E80FF11DC8
:1018D000E258FF4FE491E927E093A500809198003A
:1018E000FA01E80FF11DE258FF4F949180919100A9
:1018F000F901E80FF11DE258FF4FE491E927E09369
:10190000A60080919500FA01E80FF11DE258FF4F03
:10191000949180919200F901E80FF11DE258FF4F78
:10192000E491E927E093A70080918D00FA01E80F88
:10193000F11DE258FF4F949180918F00F901E80F5B
:10194000F11DE258FF4FE491E927E093A800809150
:101950008C00480F511D42585F4FFA0194918091BD
:101960009000280F311D22583F4FF901849189279B
:101970008093A9006A960FB6F894DEBF0FBECDBF64
:10198000CF91DF911F910F91FF90EF90DF90CF905B
:10199000BF90AF909F908F907F906F905F904F908F
:1019A0003F902F900895982F80548630A0F420E423
:1019B00030E049E450E0FA01E21BF30BD901A655EF
:1019C000BF4F8C91E657FF4F80832F5F3F4F2634E8
:1019D000310589F70895892F86548630C8F480919F
:1019E000F00080938D008091F10080938C008091B5
:1019F000F20080938B008091F30080938A008091A5
:101A0000F400809399008091F500809398000895E8
:101A1000892F8C548430B8F48091F600809397001D
:101A20008091F700809396008091F8008093950054
:101A30008091F90080939400892F90E0860F911D8A
:101A40008035910509F008950E94850A08951F9236
:101A50000F920FB60F9211242F933F934F935F93E2
:101A60006F937F938F939F93AF93BF93EF93FF9366
:101A700081B190E0887F90708039910509F480C031
:101A80008139910514F1803B910509F462C0813BD5
:101A9000910584F5803A910509F464C0883A91056E
:101AA00009F457C085E886BFFF91EF91BF91AF91D0
:101AB0009F918F917F916F915F914F913F912F9166
:101AC0000F900FBE0F901F9018958037910569F009
:101AD00081379105B4F18038910509F451C08838F7
:101AE000910501F388379105E9F61092AC0185EC78
:101AF00086BFDACF803C910509F1883C9105F1F071
:101B0000883B910579F680919A018A3A09F449C097
:101B1000E091AA01F091AB01E655FF4F808183B9B6
:101B20008091AA019091AB0101969093AB018093B3
:101B3000AA018091AD018F5F8093AD0185EC86BFD6
:101B4000B3CF8036910589F28836910509F0AACF86
:101B5000CCCF8091AA019091AB010E94350A1092DE
:101B6000AD01D1CF8091AA019091AB012091AD013F
:101B70006091AD01821B0E94D30C85EC86BF94CF8F
:101B80008091AC01882351F123B180919A018A3A66
:101B900089F1E091AA01F091AB01E655FF4F208356
:101BA000BFCFE091AA01F091AB01E655FF4F8081D4
:101BB000E091AA01F091AB01E770F070E656FF4F9B
:101BC0002081E091AA01F091AB01E770F070EE5531
:101BD000FF4F9081821B892783B9A2CF83B190E008
:101BE0009093AB018093AA0181E08093AC011092A5
:101BF000AD01A4CF8091AA019091AB01803F9105E6
:101C000041F2A091AA01B091AB01E091AA01F0913B
:101C1000AB01E770F070EE55FF4F8081E091AA01B3
:101C2000F091AB01E770F070E656FF4F908182278C
:101C3000890FA655BF4F8C9373CF97FB092E0726AC
:101C40000AD077FD04D00CD006D000201AF470958D
:101C500061957F4F0895F6F7909581959F4F089570
:101C6000AA1BBB1B51E107C0AA1FBB1FA617B707C2
:101C700010F0A61BB70B881F991F5A95A9F78095DE
:101C80009095BC01CD010895FB01DC0104C08D914C
:101C90000190801921F441505040C8F7881B990BDE
:061CA0000895F894FFCF47
:101CA6000000A42001010000000000000000000068
:101CB600000000000000000000000000000000001E
:061CC60000000000000018
:00000001FF
