:100000000C943F050C945C050C945C050C945C0509
:100010000C945C050C945C050C945C050C945C05DC
:100020000C945C050C945C050C945C050C945C05CC
:100030000C945C050C945C050C945C050C945C05BC
:100040000C945C050C94DA0B0C945C050C945C0528
:100050000C945C05A877A6E0F7435A3585E27297C1
:100060008FB71A6287380D67C7BE4F3E2076378F2D
:1000700068B7A9263F2B10E3307E900E850A705199
:100080000386400D4FEB3ECCD18735BDF50B5ED0DE
:10009000F8F2D5E26C310CADFC21C378C106C24C3C
:1000A00055E64A3448111EDAE71A84A096A7E37F82
:1000B000AF639CFA235B79C89EBAB2C922124BB3D4
:1000C000A1B63249A2E189391066C5078F54EA9179
:1000D000CA3FF919F0D746BC281B61E82F6AAE9DCC
:1000E000F64E0914774DDB1F2E7B7CF143A300B83D
:1000F000138C85B9297588FDD2561C509741E53B74
:1001000060B5C064EE98D62D25A4AACD7DA883C67F
:10011000ABBE4499263CCE9FBFD3CB767A7E82017C
:100120008A9A801D0EB05CD43862F430E08E53B7EA
:100130000257ACA6520A6D9265172433457274B10A
:10014000B4F75DED2CFF47375A90BBDF2A1659955F
:10015000D9C4276773C768FEA5DD6B5F93D8EC052C
:100160003A8D6EFB3DA96936F394DEEF156F8B9BDC
:10017000080FDC81182004E471CFE92B425801A05C
:10018000A962D63F85A7B6D4FA15661709BD5D14D6
:10019000342659729154064FF8B05B7493998CF2DF
:1001A00045CDEA4EAD104AE5CAEEDFC66F9F888E98
:1001B00002CC08A877946D21B128E4397996607152
:1001C00081162EE678B9C4469A42AEB77C43B32274
:1001D0001A86C2323D2D9CD229E9639BD131385E0B
:1001E0001E3641BB03182B3EBF6861FC52C0DEE0E7
:1001F0000A58135A00BE1C900E5312FDE26EBACE7E
:100200002427447F87A3A1D55040E3F983F7C7A2F1
:1002100035C8DB19AB2F1125ED339E55E148AF737F
:1002200084DA2AAA51EB9D95B2CBE77080FE4C652B
:1002300004EFC5F1C33AB4F55F2389DD30A58BD354
:10024000F6DC4D64D7F08FEC56375CA40D07768A48
:100250002C0BB5D8C11FE83BF44B1B476C49677B9F
:1002600092CF757E20D97D3C977AD0056B0F1DFB10
:100270008298578DF36ABCACC9A6FFB8690C4C4D87
:1002800072075A49338DA2AB463D630DA097FFF02C
:10029000F5FAC0E9DB62E4E17443DC86182937F43F
:1002A00006E2ED6F90481E2D1DEA739454DF25F68B
:1002B0004727D91177C9841C5B5C5181A6223E2453
:1002C00096C88AEC827C09B8454A57BB2F50758E78
:1002D00061708C6CAFD0FDB41BAEDEFE3BB536BD9D
:1002E00055010E9C41565FB3260383BA134BCAC512
:1002F0000AF860A5B9C7C39832FB12F9A792AA6899
:10030000F3787E05202102E8BFF2B0598FD2CB8767
:100310006515F11AB230ADEE58A38B661F2CD75D70
:100320001985A8E6D36BA10C91936A5E0B79E3DD86
:10033000004F3C896E7169A9AC40E59928C6314EE1
:100340007ACD089E7DEF17FC88D8A46D4495D1B76F
:10035000D49BBE2A34642BCF2EEB38CE23E03A3F19
:10036000F77B9F1053BC526716E7807604C4B6C172
:10037000C27F9ADAD53942149DB10F35D6CCB9DA9D
:10038000380CA29C091F06B1B6FD1A692330C4DEE1
:1003900001D1F45829371C7DD5BFFFBDC8C9CF6531
:1003A000BE7B7897986708B32657F7FA40AD8E75ED
:1003B000A67CDB918B5199D4177A908DCE63CB4E6E
:1003C000A0AB183A5B507F2174C1BBB8B7BA0B35EC
:1003D0009531599A4D04071E5A7613F37183D086CE
:1003E00003A83942AA28E6E4D85DD3D06E6F96FB05
:1003F0005EBC56C25F859BE7AFD23B846AA753C5FC
:100400004449A5F936723D2CD91BA1F54F939D683F
:10041000474116CA2A4CA387D6E5192E77156D7069
:10042000C0DFB20046EDC66C4360922DA922458F15
:100430003455AEA40A6632E0DC02ACE8208C896256
:100440004AFEEEC3E33CF17905E9F62733CCF29E90
:1004500011817E80108A829F480DD7B4FC2FB5C7CA
:10046000DD88146B2B54EA1D945CB0EF1224CDEBA5
:10047000E1E264733F0E5261253EF80F4BECC00081
:1004800030F602493D106E20C9A62FFE2C2B752E8A
:100490004526AB48A980FC04CCD3B5BAA338317D3E
:1004A00001D9A77B96B663694EF7DEE078CA50AAF9
:1004B00041916588E42185DA3A27BE1C3E425E17E9
:1004C000527F1F89246F8F5C67740E12878DE93409
:1004D000ED73C4F8615B05DF594C97798318A45517
:1004E00095EBBD53F5F15766469FB28109518622BF
:1004F00016DD23937629C2D71DD4BF363FEA4B11B0
:1005000032B9625460D66D439A0D929CB0EF586C2C
:100510009D772D70FAF3B30BE2407EF48AE58C3CB4
:100520005671D164E1820ACB131590EC0399AF1494
:100530005D0F334A94A5A8351BE36AC628FF4DE733
:100540002584AC08AEC5A22AB8370C7AA0C3CEADBC
:10055000061A9E8BFBD5D0C11ED0B49BB144F24786
:10056000C768CF72BB4F5AF9DC6BDBD2E87CC8EEB0
:1005700098A1E6D839075FFD8E19B73BBCCD7CE367
:100580008173B211BF6F2098FE7596EF6CDA50E15F
:1005900009725445BA34805BED3E532C87A457F35F
:1005A000333F3CB767B4A325604F076B1B47150F5C
:1005B000E40AEAD1327836498D4BD2BCA5DC1D0D58
:1005C0004DCD9A825FFC9465BEE2F4C91E44CB9E79
:1005D0000C64712663B314E840708A0E19426DAC46
:1005E00088105CDF41A9ADE5FB74CCD5068E598639
:1005F000CE1F3D76E08FB977277BA6D829D3ECB8FC
:1006000013F7FAC3516ADE4A5AEBC28B234892CFE2
:1006100062A899F8D02E856143C8BDF00593CA4EF3
:10062000F17D30FDC469662F08B152F921E67A2BBD
:10063000DD3984FFC091D637D47F2D9B5DA13B6E01
:10064000B5C54604F590EE7E831C0356B6AA001786
:10065000013555790B12BB1A31E7022816C1F6A2F3
:10066000DB189C89683897ABC72AD73AF2C6244C66
:10067000B058A0225E9DD9A7E9AEAF8C959F28B750
:1006800020D7B030C30919C067D6003C7EE7E9F433
:10069000085AF8B82E05A6259E5CD8150DE1F6116E
:1006A000546BCD2146665E84AD06382944C5A2CE82
:1006B000F1AAC1407186B5EFFC36A8CB0A482745A0
:1006C00064A3AF8CB2C69F0789DC17D34979FBFEC0
:1006D0001DD0B9884352BC01782B7D94C70EDEA58E
:1006E000D59BCCF7617AC274813903AB96A037BD34
:1006F0002D72753FC9D48E6FF98DED62DB1CDF045E
:10070000AC1B6C144B63D0BFB482EC7B1A5992D2F1
:100710001060B63D5FE6806E70C4F235D97CEEE5C0
:1007200041A45B50DDBB4CF31F9D5D57555197E3D2
:1007300058424D9C73BAC877316926AEEA8ADA22EC
:10074000B38756FA930B341633E8E453BEA9B13A93
:100750003EF5906ACF3B12FD8F9AA7479199EB0F18
:1007600024FF2318854E7F0CE0A1D2D12C2A4A0207
:100770004F1E95688B98836D76CA6532132FC3829E
:100780009AA4BA8160373435FC80A8516567ED3092
:100790005F10D34A272F13B92AD2CCE1EFAEEBBEBC
:1007A000F4BDCF43B3C58884B7DD3940CE486D9BD7
:1007B00072617EE7A14E532E773BE2C936221B6E53
:1007C00073B103B24C87A9D44D0FD8156CAA18F693
:1007D00049575DFB7A149463A011B09EDE0546C8AC
:1007E000EE47DBDC24899C919729E97BC1071EB881
:1007F000FDFEACC662984FF179E0E86B7856B68D95
:10080000045086CA6F20E6EAE576171C747FBC0D9B
:100810002C85F76696E48B753F4BD938AF7CDA0BA5
:10082000832D3132A2F51D594145BF3C1FF8F98A8D
:10083000D016256912999D2195AB01A6D7B5C07D2B
:10084000FF580E3A92D155E3089FD63E528EFAA336
:10085000C702CDDF8F64198CF3A70C5E0A6A09F01A
:10086000935B42C20623EC71ADB4CBBB7028D51AA2
:100870005C33685A004490A5C4263D2BF25496ADD3
:10088000DA1FED33E18169080D0ADB35779A64D10F
:10089000FC78AA1BD067A0DDFA6C63710584176A27
:1008A000894F667FC65055926FBDE7D240728DBBAF
:1008B000EC06428AE4889D7E7A822713411AAFC8EB
:1008C000A476B4C2FE6D1CD96130B37CEAF7290F5F
:1008D000F23B51C1DE5FE52A2F990B5DA32B4AAB9A
:1008E00095A5D35856EE283100CC1546CAE6863871
:1008F0003C65F5E39FD65B094983702D53A97DE2E2
:10090000C4AC8E5EB825F4B957F3F16847B2A2596A
:1009100020CE34795C900E1EBED52223B1C9186258
:10092000162E913E078FD83F933DD49BDF8521FB48
:10093000117497C7D7DC4C194598E943024BBCC3E7
:10094000049C6BF07552A726F6C5BACFB0B7AE5A65
:10095000A1BF038B80126E0CEBF9C04424EF10F89A
:10096000A88CE87BFF9E2CCD603687B594A6547387
:100970003A144E011DB6FD37484D39CBE032000028
:100980000000000000000000000000000000000067
:100990000000000000000000000000000000000057
:1009A0000000000000000000000000000000000047
:1009B0000000000000000000000000000000000037
:1009C0000000000000000000000000000000000027
:1009D0000000000000000000000000000000000017
:1009E0000000000000000000000000000000000007
:1009F00000000000000000000000000000000000F7
:100A000000000000000000000000000000000000E6
:100A100000000000000000000000000000000000D6
:100A200000000000000000000000000000000000C6
:100A300000000000000000000000000000000000B6
:100A400000000000000000000000000000000000A6
:100A50000000000000000000000000000000000096
:100A60000000000000000000000000000000000086
:100A70000000000000000000000000000000112441
:100A80001FBECFE5D4E0DEBFCDBF10E0A0E6B0E0F2
:100A9000EEEBF9E102C005900D92A638B107D9F747
:100AA00011E0A6E8B0E001C01D92AC3AB107E1F751
:100AB0000E94D5060C94DD0C0C940000D89840E000
:100AC00020E030E052E4D998852F8A95F1F789B378
:100AD0008695869590E081709070022E02C0880FF6
:100AE000991F0A94E2F7482BD99A852F8A95F1F736
:100AF0002F5F3F4F2830310531F7D89A842F089562
:100B0000DC9840E050E020E030E062E4DD98862FA1
:100B10008A95F1F789B3829586958695837090E0E2
:100B200081709070022E02C0880F991F0A94E2F71C
:100B3000482B592BDD9A862F8A95F1F72F5F3F4F6F
:100B40002031310519F7DC9ACA0108959C018B9A6E
:100B500012BE82B78C33E8F38B9812BE82B7843111
:100B6000E8F38B9A12BE82B78C33E8F38B9812BEEF
:100B700082B78431E8F38B9A12BE82B78C33E8F3E4
:100B80008B9812BE82B78431E8F38B9A12BE82B77B
:100B90008C33E8F38B9812BE82B78431E8F38B9ADA
:100BA00012BE82B78C33E8F38B9812BE82B78431C1
:100BB000E8F38B9A12BE82B78C33E8F38B9812BE9F
:100BC00082B78431E8F38B9A12BE82B78C33E8F394
:100BD0008B9812BE82B78431E8F38B9A12BE82B72B
:100BE0008431E8F38B9812BE82B78C33E8F38B9A8A
:100BF00012BE82B78431E8F38B9812BE82B7883276
:100C0000E8F3F90140E050E0108220E030E012BE4D
:100C10008399FECF82B7803FE8F412BE839BFECF5C
:100C200082B7803FB8F49081990F908382B7843265
:100C300010F4916090832F5F3F4F2830310539F7D2
:100C40004F5F5F4F319644305105F1F621E030E0BF
:100C5000C901089520E030E0C90108959F92AF9244
:100C6000BF92CF92DF92EF92FF920F931F93DF9884
:100C70008AEF90E0FC013197F1F793B203B3E3B24E
:100C8000C3B2A3B263B3DF9A0197F1F7B3B383B3EF
:100C900023B343B3E3B3A3B3AA1FAA27AA1FA29502
:100CA000AA0FA07EB695B695B170AB2B86958695AA
:100CB000869590E081709070880F991FA82B2295DF
:100CC0002F7030E021703070220F331F220F331F3E
:100CD000A22B42954695477050E041705070440FEA
:100CE000551F440F551F440F551FA42BE295E69541
:100CF000E695E370F0E0E170F070E295F295F07F38
:100D0000FE27E07FFE279A2F9E2B80E0661F662736
:100D1000661F6295660F607E9694969421E09222FB
:100D2000692906950695069510E001701070000F70
:100D3000111F602BE294EFE0EE22FF2421E0E2227B
:100D4000FF24EE0CFF1CEE0CFF1C6E29C294C6940F
:100D500057E0C522DD2421E0C222DD24CC0CDD1CBD
:100D6000CC0CDD1CCC0CDD1C6C29A294A694A694A2
:100D700033E0A322BB2421E0A222BB24A294B2949C
:100D800020EFB222BA24A222BA246A2970E0682B8A
:100D9000792BCB011F910F91FF90EF90DF90CF90B7
:100DA000BF90AF909F90089508955F926F927F9249
:100DB0008F929F92AF92BF92CF92DF92EF92FF926B
:100DC0000F931F93DF93CF9300D000D000D0CDB707
:100DD000DEB783B7816083BFD49AD59ADE9AD09A62
:100DE000D19ADA9AD79AA298A398A498A598A69887
:100DF000A798AA9AAB9AAC9AAD9AAE9AAF9A8FE599
:100E000089838FED8A838FE88B831C828FEF8D839C
:100E10008E8380E690E05E010894A11CB11CB501B0
:100E200046E650E024ED36E00E94FA089FE5892E60
:100E30008FED782E0FE8602E99249A9412E4512EAB
:100E400089827A826B821C829D829E820E948005AA
:100E5000BC01EE24FF24CC24DD2441E050E016C088
:100E60002230310509F44CC1233031050CF042C069
:100E70002115310509F45DC12130310509F455C151
:100E8000403151050CF042C04F5F5F4F9A01215035
:100E90003040CB01022E02C0969587950A94E2F766
:100EA00080FDEECF2530310509F421C12630310512
:100EB000BCF22830310509F434C1293031055CF425
:100EC0002630310509F428C127303105C9F6FEE185
:100ED000EF2EF12CD9CF2A30310509F419C12A306F
:100EE00031050CF411C12B30310551F68D818D7F08
:100EF0008D83CACF2330310509F4FEC0243031057B
:100F000009F0BECFAEE1CA2ED12CBECF0E945E0545
:100F1000682F70E041E050E015C02330310509F43E
:100F20001CC1243031050CF0C3C02130310509F457
:100F30001DC1223031050CF41DC18D818F7E8D8342
:100F40004F5F5F4F9A0121503040CB01022E02C00B
:100F5000959587950A94E2F780FFDFCF48305105D9
:100F60007CF300E010E00E942E06BC018F709070B0
:100F7000892B09F048C0023011050CF444C045E04B
:100F800050E00DC02430310509F4A1C025303105F1
:100F900009F499C04C3051051CF54F5F5F4F9A0121
:100FA00021503040CB01022E02C0969587950A94BD
:100FB000E2F780FDEFCF2830310509F48CC02930ED
:100FC000310504F32A30310509F48DC02A3031058A
:100FD0000CF485C02B303105E9F68D818F7E8D8331
:100FE0000F5F1F4F0430110509F0BDCF89818E0DB1
:100FF00089838A818C0D8A83C5010E94F108852D21
:101000008A95F1F71DCF41E050E015C0253031053C
:1010100009F441C026303105F4F42130310509F4DA
:1010200042C024303105D9F1232B89F4EEE1CE2ED4
:10103000D12C4F5F5F4F9A0121503040CB01022EDF
:1010400002C0969587950A94E2F780FFDFCF4E3075
:1010500051057CF3C5CF2B303105C9F02C3031055B
:1010600044F42A30310599F782EEE82E8FEFF82EFE
:10107000E0CF2C30310539F02D30310541F78E812C
:101080008F7B8E83ADCF8E818F7E8E83D2CFBEE15C
:10109000EB2EF12CCECF8D818B7F8D83CACF8E81AD
:1010A0008F7D8E83C6CF92EEC92E9FEFD92EC1CFF2
:1010B0002530310509F455C025303105F4F5FEE140
:1010C000CF2ED12C3DCF8D818B7F8D8366CF8E81AE
:1010D0008F7D8E8362CF8D818D7F8D835ECF8E815C
:1010E000877F8E835ACF8D818F7D8D8356CFB2EED1
:1010F000CB2EBFEFDB2EC8CE8D818B7F8D83C4CEF0
:101100008D818F7E8D83C0CE8E81877F8E83BCCE76
:101110008D818F7D8D83B8CEA2EEEA2EAFEFFA2EB1
:10112000B3CE8E818F7E8E83AFCE8E818F7D8E8368
:10113000ABCE8E818F7B8E83A7CE2630310541F0DA
:101140002730310509F00ACF3EE1E32EF12C09CF1B
:1011500022EEE22E2FEFF22EF3CE8D818B7F8D8348
:10116000EFCEE2EECE2EEFEFDE2EEACE8E818F7B3B
:101170008E83E6CE232B09F0F1CE8E818F7E8E8377
:10118000DFCE1092A9011092A801880F82B985E4E0
:1011900086BF78940895882319F485E886BF08955A
:1011A00085EC86BF0895282F30E070E088E090E05D
:1011B000861B970BA90102C0440F551F8A95E2F7C1
:1011C000CA0102C0359527956A95E2F7822B0895EA
:1011D000863008F00895E0918600F0918700099527
:1011E0000895A8EAB0E0FC0186E001900D928150DC
:1011F000E1F708950F931F93182F092F309387005D
:1012000020938600A8EAB0E0FB0186E001900D92F1
:101210008150E1F710929801812F902F9C01D90104
:101220002AEF30E08D91F901E855FF4F80832F5F61
:101230003F4F81E020303807A9F7DA0120E230E0A3
:101240008D91F901E855FF4F80832F5F3F4F263284
:101250003105B1F7A898A9981092A9011092A80198
:1012600084EA82B985E486BF78941F910F9108952E
:101270002F923F924F925F926F927F928F929F92A6
:10128000AF92BF92CF92DF92EF92FF920F931F9394
:10129000DF93CF93CDB7DEB76A970FB6F894DEBF72
:1012A0000FBECDBF44E5642E40E0742E88249E011D
:1012B000295F3F4F388F2F8B3DE0232E312C2C0E92
:1012C0003D1E28E0422E512CDE011196F30184913F
:1012D0008D9331964F89588DA417B507C1F780E0DB
:1012E00090E0FC01E857FF4FE081F0E0E258FF4F4B
:1012F000E491D101A80FB91FEC9301968A309105B2
:1013000081F7AA88CF8429812A2530E04C2D4770A7
:1013100050E09E88B988C201841B950BB90102C0B8
:10132000660F771F8A95E2F7CB0102C035952795A6
:101330004A95E2F7822B89198B258F83EE84DD8411
:101340002A812E2530E04D2D477050E0AC89C20136
:10135000841B950BF90102C0EE0FFF1F8A95E2F77F
:10136000CF0102C0359527954A95E2F7822B8A195D
:101370008A278887EB892B812E2730E00D8907701B
:1013800010E0B201601B710BC901062E02C0880F6C
:10139000991F0A94E2F7002E02C0359527950A940A
:1013A000E2F7822B8C198D2589872C812B2530E043
:1013B0004A2F4770842F90E09A8F898FD888C20176
:1013C000498D5A8D841B950BA90102C0440F551FEE
:1013D0008A95E2F7CA01098C02C0359527950A94CF
:1013E000E2F7822B8D198C258A878D81E826FF24D0
:1013F000E770F0E0C2018E1B9F0B970102C0220F25
:10140000331F8A95E2F7C90102C0F594E794EA9583
:10141000E2F78E298D198B258B878E81A827B0E066
:10142000AD0102C0440F551F6A95E2F7BA0102C030
:10143000B595A7950A95E2F76A2B6A1969256C8715
:10144000CE01079662E970E046E050E00E94D00CC1
:10145000009749F0839466E070E0660E771E77E0AF
:10146000871609F031CF282D30E02F5F3F4F522FE4
:10147000442780919600FA01E80FF11DE258FF4FD2
:1014800094912F5F3F4F322F222780918B00F901DB
:10149000E80FF11DE258FF4FE491E927E09398002F
:1014A00080919400FA01E80FF11DE258FF4F9491EA
:1014B00080918D00F901E80FF11DE258FF4FE49192
:1014C000E927E093990080919700FA01E80FF11D58
:1014D000E258FF4F949180918F00F901E80FF11DC0
:1014E000E258FF4FE491E927E0939A00809192003F
:1014F000FA01E80FF11DE258FF4F949180918A00A4
:10150000F901E80FF11DE258FF4FE491E927E0935C
:101510009B0080919300FA01E80FF11DE258FF4F04
:10152000949180918C00F901E80FF11DE258FF4F72
:10153000E491E927E0939C0080919500FA01E80F7F
:10154000F11DE258FF4F949180919100F901E80F4D
:10155000F11DE258FF4FE491E927E0939D0080914F
:101560008800FA01E80FF11DE258FF4F9491809135
:101570008E00F901E80FF11DE258FF4FE491E927D1
:10158000E0939E0080918900FA01E80FF11DE25876
:10159000FF4F949180919000F901E80FF11DE258FE
:1015A000FF4FE491E927E0939F0080919200FA01B8
:1015B000E80FF11DE258FF4F949180918900F901E5
:1015C000E80FF11DE258FF4FE491E927E093A000F6
:1015D00080919700FA01E80FF11DE258FF4F9491B6
:1015E00080918C00F901E80FF11DE258FF4FE49162
:1015F000E927E093A10080919500FA01E80FF11D21
:10160000E258FF4F949180918800F901E80FF11D95
:10161000E258FF4FE491E927E093A2008091940003
:10162000FA01E80FF11DE258FF4F9491809191006B
:10163000F901E80FF11DE258FF4FE491E927E0932B
:10164000A30080919600FA01E80FF11DE258FF4FC8
:10165000949180918F00F901E80FF11DE258FF4F3E
:10166000E491E927E093A40080919300FA01E80F48
:10167000F11DE258FF4F949180919000F901E80F1D
:10168000F11DE258FF4FE491E927E093A500809116
:101690008B00FA01E80FF11DE258FF4F9491809101
:1016A0008D00F901E80FF11DE258FF4FE491E927A1
:1016B000E093A60080918A00480F511D42585F4F69
:1016C000FA01949180918E00280F311D22583F4FCE
:1016D000F901849189278093A7006A960FB6F89440
:1016E000DEBF0FBECDBFCF91DF911F910F91FF9055
:1016F000EF90DF90CF90BF90AF909F908F907F90B2
:101700006F905F904F903F902F900895982F805446
:101710008630A0F420E430E049E450E0FA01E21B16
:10172000F30BD901A855BF4F8C91E857FF4F808329
:101730002F5F3F4F2634310589F70895892F86544E
:101740008630C8F48091EE0080938B008091EF008A
:1017500080938A008091F000809389008091F1004D
:10176000809388008091F200809397008091F3002D
:10177000809396000895892F8C548430B8F480911A
:10178000F400809395008091F500809394008091FF
:10179000F600809393008091F70080939200892F48
:1017A00090E0860F911D8035910509F008950E9403
:1017B000380908951F920F920FB60F9211242F939C
:1017C0003F934F935F936F937F938F939F93AF93C9
:1017D000BF93EF93FF9381B190E0887F9070803941
:1017E000910509F480C08139910514F1803B910580
:1017F00009F462C0813B910584F5803A910509F4B2
:1018000064C0883A910509F457C085E886BFFF9106
:10181000EF91BF91AF919F918F917F916F915F9168
:101820004F913F912F910F900FBE0F901F901895E1
:101830008037910569F081379105B4F180389105C1
:1018400009F451C08838910501F388379105E9F60C
:101850001092AA0185EC86BFDACF803C910509F190
:10186000883C9105F1F0883B910579F680919801CB
:101870008A3A09F449C0E091A801F091A901E8551C
:10188000FF4F808183B98091A8019091A9010196B1
:101890009093A9018093A8018091AB018F5F809301
:1018A000AB0185EC86BFB3CF8036910589F28836CF
:1018B000910509F0AACFCCCF8091A8019091A90100
:1018C0000E94E8081092AB01D1CF8091A8019091BD
:1018D000A9012091AB016091AB01821B0E94860B94
:1018E00085EC86BF94CF8091AA01882351F123B162
:1018F000809198018A3A89F1E091A801F091A901BB
:10190000E855FF4F2083BFCFE091A801F091A901D6
:10191000E855FF4F8081E091A801F091A901E7709F
:10192000F070E856FF4F2081E091A801F091A901E5
:10193000E770F070E056FF4F9081821B892783B9D2
:10194000A2CF83B190E09093A9018093A80181E098
:101950008093AA011092AB01A4CF8091A80190912D
:10196000A901803F910541F2A091A801B091A90180
:10197000E091A801F091A901E770F070E056FF4FE7
:101980008081E091A801F091A901E770F070E8561C
:10199000FF4F90818227890FA855BF4F8C9373CF3B
:1019A000FB01DC0104C08D910190801921F44150AC
:0E19B0005040C8F7881B990B0895F894FFCF9C
:1019BE000000A42001010000000000000000000053
:1019CE000000000000000000000000000000000009
:0619DE0000000000000003
:00000001FF
