:100000000C943F050C945C050C945C050C945C0509
:100010000C945C050C945C050C945C050C945C05DC
:100020000C945C050C945C050C945C050C945C05CC
:100030000C945C050C945C050C945C050C945C05BC
:100040000C945C050C94E90D0C945C050C945C0517
:100050000C945C05A877A6E0F7435A3585E27297C1
:100060008FB71A6287380D67C7BE4F3E2076378F2D
:1000700068B7A9263F2B10E3307E900E850A705199
:100080000386400D4FEB3ECCD18735BDF50B5ED0DE
:10009000F8F2D5E26C310CADFC21C378C106C24C3C
:1000A00055E64A3448111EDAE71A84A096A7E37F82
:1000B000AF639CFA235B79C89EBAB2C922124BB3D4
:1000C000A1B63249A2E189391066C5078F54EA9179
:1000D000CA3FF919F0D746BC281B61E82F6AAE9DCC
:1000E000F64E0914774DDB1F2E7B7CF143A300B83D
:1000F000138C85B9297588FDD2561C509741E53B74
:1001000060B5C064EE98D62D25A4AACD7DA883C67F
:10011000ABBE4499263CCE9FBFD3CB767A7E82017C
:100120008A9A801D0EB05CD43862F430E08E53B7EA
:100130000257ACA6520A6D9265172433457274B10A
:10014000B4F75DED2CFF47375A90BBDF2A1659955F
:10015000D9C4276773C768FEA5DD6B5F93D8EC052C
:100160003A8D6EFB3DA96936F394DEEF156F8B9BDC
:10017000080FDC81182004E471CFE92B425801A05C
:10018000A962D63F85A7B6D4FA15661709BD5D14D6
:10019000342659729154064FF8B05B7493998CF2DF
:1001A00045CDEA4EAD104AE5CAEEDFC66F9F888E98
:1001B00002CC08A877946D21B128E4397996607152
:1001C00081162EE678B9C4469A42AEB77C43B32274
:1001D0001A86C2323D2D9CD229E9639BD131385E0B
:1001E0001E3641BB03182B3EBF6861FC52C0DEE0E7
:1001F0000A58135A00BE1C900E5312FDE26EBACE7E
:100200002427447F87A3A1D55040E3F983F7C7A2F1
:1002100035C8DB19AB2F1125ED339E55E148AF737F
:1002200084DA2AAA51EB9D95B2CBE77080FE4C652B
:1002300004EFC5F1C33AB4F55F2389DD30A58BD354
:10024000F6DC4D64D7F08FEC56375CA40D07768A48
:100250002C0BB5D8C11FE83BF44B1B476C49677B9F
:1002600092CF757E20D97D3C977AD0056B0F1DFB10
:100270008298578DF36ABCACC9A6FFB8690C4C4D87
:1002800072075A49338DA2AB463D630DA097FFF02C
:10029000F5FAC0E9DB62E4E17443DC86182937F43F
:1002A00006E2ED6F90481E2D1DEA739454DF25F68B
:1002B0004727D91177C9841C5B5C5181A6223E2453
:1002C00096C88AEC827C09B8454A57BB2F50758E78
:1002D00061708C6CAFD0FDB41BAEDEFE3BB536BD9D
:1002E00055010E9C41565FB3260383BA134BCAC512
:1002F0000AF860A5B9C7C39832FB12F9A792AA6899
:10030000F3787E05202102E8BFF2B0598FD2CB8767
:100310006515F11AB230ADEE58A38B661F2CD75D70
:100320001985A8E6D36BA10C91936A5E0B79E3DD86
:10033000004F3C896E7169A9AC40E59928C6314EE1
:100340007ACD089E7DEF17FC88D8A46D4495D1B76F
:10035000D49BBE2A34642BCF2EEB38CE23E03A3F19
:10036000F77B9F1053BC526716E7807604C4B6C172
:10037000C27F9ADAD53942149DB10F35D6CCB9DA9D
:10038000380CA29C091F06B1B6FD1A692330C4DEE1
:1003900001D1F45829371C7DD5BFFFBDC8C9CF6531
:1003A000BE7B7897986708B32657F7FA40AD8E75ED
:1003B000A67CDB918B5199D4177A908DCE63CB4E6E
:1003C000A0AB183A5B507F2174C1BBB8B7BA0B35EC
:1003D0009531599A4D04071E5A7613F37183D086CE
:1003E00003A83942AA28E6E4D85DD3D06E6F96FB05
:1003F0005EBC56C25F859BE7AFD23B846AA753C5FC
:100400004449A5F936723D2CD91BA1F54F939D683F
:10041000474116CA2A4CA387D6E5192E77156D7069
:10042000C0DFB20046EDC66C4360922DA922458F15
:100430003455AEA40A6632E0DC02ACE8208C896256
:100440004AFEEEC3E33CF17905E9F62733CCF29E90
:1004500011817E80108A829F480DD7B4FC2FB5C7CA
:10046000DD88146B2B54EA1D945CB0EF1224CDEBA5
:10047000E1E264733F0E5261253EF80F4BECC00081
:1004800030F602493D106E20C9A62FFE2C2B752E8A
:100490004526AB48A980FC04CCD3B5BAA338317D3E
:1004A00001D9A77B96B663694EF7DEE078CA50AAF9
:1004B00041916588E42185DA3A27BE1C3E425E17E9
:1004C000527F1F89246F8F5C67740E12878DE93409
:1004D000ED73C4F8615B05DF594C97798318A45517
:1004E00095EBBD53F5F15766469FB28109518622BF
:1004F00016DD23937629C2D71DD4BF363FEA4B11B0
:1005000032B9625460D66D439A0D929CB0EF586C2C
:100510009D772D70FAF3B30BE2407EF48AE58C3CB4
:100520005671D164E1820ACB131590EC0399AF1494
:100530005D0F334A94A5A8351BE36AC628FF4DE733
:100540002584AC08AEC5A22AB8370C7AA0C3CEADBC
:10055000061A9E8BFBD5D0C11ED0B49BB144F24786
:10056000C768CF72BB4F5AF9DC6BDBD2E87CC8EEB0
:1005700098A1E6D839075FFD8E19B73BBCCD7CE367
:100580008173B211BF6F2098FE7596EF6CDA50E15F
:1005900009725445BA34805BED3E532C87A457F35F
:1005A000333F3CB767B4A325604F076B1B47150F5C
:1005B000E40AEAD1327836498D4BD2BCA5DC1D0D58
:1005C0004DCD9A825FFC9465BEE2F4C91E44CB9E79
:1005D0000C64712663B314E840708A0E19426DAC46
:1005E00088105CDF41A9ADE5FB74CCD5068E598639
:1005F000CE1F3D76E08FB977277BA6D829D3ECB8FC
:1006000013F7FAC3516ADE4A5AEBC28B234892CFE2
:1006100062A899F8D02E856143C8BDF00593CA4EF3
:10062000F17D30FDC469662F08B152F921E67A2BBD
:10063000DD3984FFC091D637D47F2D9B5DA13B6E01
:10064000B5C54604F590EE7E831C0356B6AA001786
:10065000013555790B12BB1A31E7022816C1F6A2F3
:10066000DB189C89683897ABC72AD73AF2C6244C66
:10067000B058A0225E9DD9A7E9AEAF8C959F28B750
:1006800020D7B030C30919C067D6003C7EE7E9F433
:10069000085AF8B82E05A6259E5CD8150DE1F6116E
:1006A000546BCD2146665E84AD06382944C5A2CE82
:1006B000F1AAC1407186B5EFFC36A8CB0A482745A0
:1006C00064A3AF8CB2C69F0789DC17D34979FBFEC0
:1006D0001DD0B9884352BC01782B7D94C70EDEA58E
:1006E000D59BCCF7617AC274813903AB96A037BD34
:1006F0002D72753FC9D48E6FF98DED62DB1CDF045E
:10070000AC1B6C144B63D0BFB482EC7B1A5992D2F1
:100710001060B63D5FE6806E70C4F235D97CEEE5C0
:1007200041A45B50DDBB4CF31F9D5D57555197E3D2
:1007300058424D9C73BAC877316926AEEA8ADA22EC
:10074000B38756FA930B341633E8E453BEA9B13A93
:100750003EF5906ACF3B12FD8F9AA7479199EB0F18
:1007600024FF2318854E7F0CE0A1D2D12C2A4A0207
:100770004F1E95688B98836D76CA6532132FC3829E
:100780009AA4BA8160373435FC80A8516567ED3092
:100790005F10D34A272F13B92AD2CCE1EFAEEBBEBC
:1007A000F4BDCF43B3C58884B7DD3940CE486D9BD7
:1007B00072617EE7A14E532E773BE2C936221B6E53
:1007C00073B103B24C87A9D44D0FD8156CAA18F693
:1007D00049575DFB7A149463A011B09EDE0546C8AC
:1007E000EE47DBDC24899C919729E97BC1071EB881
:1007F000FDFEACC662984FF179E0E86B7856B68D95
:10080000045086CA6F20E6EAE576171C747FBC0D9B
:100810002C85F76696E48B753F4BD938AF7CDA0BA5
:10082000832D3132A2F51D594145BF3C1FF8F98A8D
:10083000D016256912999D2195AB01A6D7B5C07D2B
:10084000FF580E3A92D155E3089FD63E528EFAA336
:10085000C702CDDF8F64198CF3A70C5E0A6A09F01A
:10086000935B42C20623EC71ADB4CBBB7028D51AA2
:100870005C33685A004490A5C4263D2BF25496ADD3
:10088000DA1FED33E18169080D0ADB35779A64D10F
:10089000FC78AA1BD067A0DDFA6C63710584176A27
:1008A000894F667FC65055926FBDE7D240728DBBAF
:1008B000EC06428AE4889D7E7A822713411AAFC8EB
:1008C000A476B4C2FE6D1CD96130B37CEAF7290F5F
:1008D000F23B51C1DE5FE52A2F990B5DA32B4AAB9A
:1008E00095A5D35856EE283100CC1546CAE6863871
:1008F0003C65F5E39FD65B094983702D53A97DE2E2
:10090000C4AC8E5EB825F4B957F3F16847B2A2596A
:1009100020CE34795C900E1EBED52223B1C9186258
:10092000162E913E078FD83F933DD49BDF8521FB48
:10093000117497C7D7DC4C194598E943024BBCC3E7
:10094000049C6BF07552A726F6C5BACFB0B7AE5A65
:10095000A1BF038B80126E0CEBF9C04424EF10F89A
:10096000A88CE87BFF9E2CCD603687B594A6547387
:100970003A144E011DB6FD37484D39CBE032000028
:100980000000000000000000000000000000000067
:100990000000000000000000000000000000000057
:1009A0000000000000000000000000000000000047
:1009B0000000000000000000000000000000000037
:1009C0000000000000000000000000000000000027
:1009D0000000000000000000000000000000000017
:1009E0000000000000000000000000000000000007
:1009F00000000000000000000000000000000000F7
:100A000000000000000000000000000000000000E6
:100A100000000000000000000000000000000000D6
:100A200000000000000000000000000000000000C6
:100A300000000000000000000000000000000000B6
:100A400000000000000000000000000000000000A6
:100A50000000000000000000000000000000000096
:100A60000000000000000000000000000000000086
:100A70000000000000000000000000000000112441
:100A80001FBECFE5D4E0DEBFCDBF10E0A0E6B0E0F2
:100A9000E0ECF3E202C005900D92AE3AB107D9F74F
:100AA00011E0AEEAB0E001C01D92A53DB107E1F74B
:100AB0000E946A050C94DE110C940000A89528E0B1
:100AC00088E190E00FB6F894A89581BD0FBE21BDD6
:100AD000C49A08952F923F924F925F926F927F92A5
:100AE0008F929F92AF92BF92CF92DF92EF92FF923E
:100AF0000F931F93DF93CF93CDB7DEB763970FB6F6
:100B0000F894DEBF0FBECDBFBC9ABB9A0E94310FD6
:100B10000E94060F0E94DF0E0E94C10F0E947510F6
:100B200080E090E00E94C911C82E82E08C1508F484
:100B3000CC2428EE33E044EF51E0CA010197F1F7ED
:100B400021503040D1F78FE58D838FED8E838FE874
:100B50008F8318868FEF89878A8780E690E0BE01B1
:100B60006B5F7F4F46E650E02EE535E00E94090BB3
:100B70002FE088E190E00FB6F894A89581BD0FBEF4
:100B800021BD442455241E010894211C311C04EF6E
:100B900011E0C398F894C1010E94370F7894892B13
:100BA00009F070C26624772488249924CE010B961C
:100BB00069E070E040E020E00E94E810892B09F431
:100BC0005CC08E85682F70E041E050E016C0C39A8B
:100BD0002330310509F42EC4243031050CF0E1C175
:100BE0002130310509F422C4223031050CF486C4C9
:100BF0008985837F89874F5F5F4F9A0121503040FD
:100C0000CB01022E02C0959587950A94E2F780FFEA
:100C1000DECF483051057CF38F85682F70E041E0CE
:100C200050E016C0C39A2330310509F407C42430BC
:100C300031050CF0C2C12130310509F40BC422305A
:100C400031050CF469C489858F7D89874F5F5F4FBB
:100C50009A0121503040CB01022E02C09595879514
:100C60000A94E2F780FFDECF483051057CF38C8593
:100C700082958F70873009F463C30E940B0FBC010B
:100C8000AA24BB2441E050E016C02230310509F40B
:100C9000DDC1233031050CF047C02115310509F4C1
:100CA000CAC12130310509F4C2C1403151050CF0EF
:100CB0004BC04F5F5F4F9A0121503040CB01022E55
:100CC00002C0969587950A94E2F780FDEECFC39A0D
:100CD0002530310509F4BEC126303105B4F2283083
:100CE000310509F49DC1293031057CF426303105E8
:100CF00009F48EC127303105C1F6F2E0CF1609F0B4
:100D0000CBC389858F778987D4CF2A30310509F401
:100D10007BC12A3031050CF495C12B30310529F601
:100D200089858D7F8987C5CF2330310509F465C159
:100D30002430310509F0B9CF82E0C81609F0BBC3F1
:100D40008A858E7F8A87B5CF0E94E40E682F70E077
:100D500041E050E016C0C39A2330310509F450C277
:100D6000243031050CF0D2C02130310509F44FC2D6
:100D7000223031050CF472C389858F7E89874F5FDD
:100D80005F4F9A0121503040CB01022E02C0959551
:100D900087950A94E2F780FFDECF483051057CF357
:100DA000DD24EE24FF240E94CF0FBC018F709070D1
:100DB000892B09F05FC082E0E816F1040CF45AC0F8
:100DC00045E050E00DC02430310509F407C125305D
:100DD000310509F4FEC04C30510524F54F5F5F4FDB
:100DE0009A0121503040CB01022E02C09695879582
:100DF0000A94E2F780FDEFCF2830310509F4CCC02A
:100E00002930310504F32A30310509F4F1C02A30C4
:100E100031050CF4E8C02B303105E9F689858F7E69
:100E20008987C39A0894E11CF11C94E0E916F10447
:100E300009F0B9CF8D81860D8D838E81880D8E83CB
:100E4000CE0105960E94000BE3E0AE16B10409F452
:100E500003C24424552488E893E10197F1F79FE504
:100E60009D838FED8E838FE88F8318868FEF898720
:100E70008A878FCE41E050E09A0121503040CB016B
:100E8000022E02C0969587950A94E2F780FD2AC04B
:100E90002530310509F452C026303105BCF421302B
:100EA000310509F471C02430310509F464C0232BE5
:100EB000B9F492E0C91609F0B1C18A858E7F8A879C
:100EC000C39ADD24D3944F5F5F4FD6CF2B303105CB
:100ED00069F12C3031056CF42A30310509F443C036
:100EE000DD24D3944E30510574F3DD2009F09ACF00
:100EF000A1CF2C30310571F12D30310589F78A856C
:100F00008F7E8A87C39ADD24D3948CCF2530310518
:100F100009F46EC1253031050CF0A4C082E0C8167A
:100F200009F0D8C28A858E7F8A8729CF82E0C816C9
:100F300009F07BC189858F778987C2CF89858B7FAF
:100F40008987C39AE114F10409F0BBCF0894A11C6E
:100F5000B11CB7CF8A858F7B8A87C39AE114F104CD
:100F600009F0AFCFF3CFF2E0CF1609F065C18A8563
:100F70008D7F8A87A5CF8A858F7D8A87C39AE11462
:100F8000F10409F09ECFE2CFE2E0CE1609F05CC199
:100F900089858F7B898794CF89858D7F8987C39A3F
:100FA0001DCF2530310509F451C2253031050CF033
:100FB00026C28A858E7F8A871ECE2530310509F4A8
:100FC0005BC2253031050CF0AAC18A85877F8A87EC
:100FD0003DCE89858B7F8987C39A00CF8A858F7D97
:100FE0008A87C39AFBCE8A85877F8A87C39AF6CE83
:100FF00089858F7D8987C39AF1CE89858B7F898783
:101000000894A11CB11C55CE89858F7D898751CE4E
:10101000E2E0CE1609F047C28A858D7F8A8749CEE5
:101020008A858F7E8A870894A11CB11C42CE8A854E
:101030008F7D8A873ECE8A858F7B8A870894A11C04
:10104000B11C37CE8A85877F8A8733CE89858F7E8C
:1010500089872FCE92E0C91609F016C289858F7B49
:10106000898727CE2630310509F4BAC027303105EB
:1010700009F093CEF2E0CF1609F03AC289858F7756
:1010800089878ECE8981682F70E041E050E016C0DC
:10109000C39A2330310509F4C1C1243031050CF065
:1010A00093C02130310509F4EBC1223031050CF435
:1010B0002CC28A858F778A874F5F5F4F9A012150B4
:1010C000304088E090E0841B950BFB0102C0F59551
:1010D000E7958A95E2F7E0FDDBCF4830510564F3F0
:1010E0008A81682F70E041E050E00DC02230310568
:1010F00009F4FAC02330310509F4F2C04830510533
:1011000054F54F5F5F4F9A012150304088E090E0E6
:10111000841B950BFB0102C0F595E7958A95E2F7D4
:10112000E0FFECCFC39A2430310509F4D5C0253057
:101130003105E4F22630310509F4DEC026303105F0
:101140000CF4D6C027303105C9F68D81806C8D83B3
:101150008E81806C8E838B81282F30E02038310582
:1011600014F0205031408C81E82FF0E0E038F10598
:1011700014F0E050F140C901880F991F820F931FAE
:101180009C01220F331F220F331F280F391F220FFC
:10119000331FC90160E570E00E9495113B01CF014A
:1011A000880F991F8E0F9F1F9C01220F331F220F44
:1011B000331F280F391F220F331FC90160E570E06C
:1011C0000E9495114B01F2CC2530310509F42AC15A
:1011D000253031050CF097C08A858E7F8A876CCFC9
:1011E000E2E0CE1609F06EC18A858D7F8A87C7CD71
:1011F00092E0C91609F075C189858F7B8987BFCDBB
:1012000089858B7F89870894A11CB11CB8CD8A85FC
:101210008F7B8A870894A11CB11CB1CDCC2009F02A
:10122000AEC18EE1882E912C48CECC2009F0B0C101
:101230002EE1622E712C7ECECC2009F0A4C1E2EE0C
:101240006E2EEFEF7E2E93CECC2009F08EC1A2EE53
:101250008A2EAFEF9A2E9CCE0894411C511CF8EEBA
:101260004F16F3E05F060CF4F6CDC39483E0C81686
:1012700009F4CC2480E090E06C2D0E94D111C39839
:1012800028E833E1C8010197F1F721503040D1F748
:101290006C2D70E040E050E0C39A20ED37E0C801CB
:1012A0000197F1F721503040D1F7C39820ED37E096
:1012B000C8010197F1F721503040D1F74F5F5F4FE0
:1012C000641775074CF720E137E2C8010197F1F781
:1012D00021503040D1F7BDCD8F818F618F8311CFE9
:1012E00089858D7F89870DCF89858F7D898709CFF6
:1012F0008F81807E8F8305CF8D818F738D838E81CB
:101300008F738E83FECE2630310509F4B1C02730AD
:10131000310509F0E2CE89858F778987E1CE2630C5
:10132000310509F48FC02730310509F09DCC8A853D
:101330008F7D8A878C8582958F70873009F09DCC50
:101340008A89FEE18F9F90011124C90180509F403E
:1013500097FDECC03C01660C672C661C77088B89F6
:1013600020E830E0281B3109C901880F991F820F3E
:10137000931F9C01220F331F220F331F280F391F89
:10138000C901880F991F36FDCEC04C01880C892CED
:10139000881C9908C30106960D9710F466247724DB
:1013A000C40106960D9710F488249924988996957F
:1013B0009695969589892FEF30E0281B3109359550
:1013C000279535952795359527959E7F4D814F73A8
:1013D0005E815F736F81892F86958695869582954C
:1013E000880F880F807C842B8D839295990F907E37
:1013F000952B9E8360762E7F622B6F833ECC2630AA
:10140000310541F02730310509F003CC8A858D7F05
:101410008A8702CC89858F7B8987EDCB89858B7FF5
:1014200089874ACE89858F7B898746CE8985877E45
:101430008987E1CB89858B7F8987DDCB89858D7F06
:10144000898704CC8A858F7B8A8700CC89858F77B2
:101450008987D1CB8A858B7F8A87F8CB232B09F0AC
:101460009CCC8A858F7E8A870894A11CB11C87CC6E
:101470008A858D7F8A8720CE8A858F7E8A87E6CB74
:101480008A858F7B8A8718CECC2009F053C0E2EE84
:101490008E2EEFEF9E2EE2CDCC2009F050C09EE1C3
:1014A000692E712C2ECCCC2009F064C022EE622E65
:1014B0002FEF722EB1CDCC2009F045C0AEE18A2EBF
:1014C000912C3ECCCC2009F047C0E2EE6E2EEFEF1F
:1014D0007E2E8ACECC2009F05FC0BEE18B2E912CEF
:1014E00021CDCC20A1F5F2EE8F2EFFEF9F2E84CEE2
:1014F000CC20B9F52EE1622E712CC0CD232B09F042
:1015000088CB89858F7E898776CB232B09F0E5CD23
:101510008A858F7E8A87D0CD232B09F0A5CB8A853B
:101520008F778A8793CB81589F4F2FCFC9018158DE
:101530009E4010CFF2EE8F2EFFEF9F2EBACB9EE192
:10154000692E712CB6CBBEE18B2E912CB2CBA2EEC4
:101550008A2EAFEF9A2E13CC82EE682E8FEF782E64
:101560000ECC3EE1632E712C1BCCB2EE8B2EBFEF66
:101570009B2EA6CC32EE632E3FEF732E9ACB9EE1CC
:10158000892E912C9DCCF2EE6F2EFFEF7F2E98CC02
:101590003EE1632E712C94CC8EE1882E912CEFCB02
:1015A0001092D1011092D001880F82B985E486BFD4
:1015B00078940895882319F485E886BF089585EC0A
:1015C00086BF0895282F30E070E088E090E0861B09
:1015D000970BA90102C0440F551F8A95E2F7CA0173
:1015E00002C0359527956A95E2F7822B08958630DB
:1015F00008F00895E091AE00F091AF0009950895CC
:10160000A0EDB0E0FC0186E001900D928150E1F781
:1016100008950F931F93182F092F3093AF00209335
:10162000AE00A0EDB0E0FB0186E001900D9281508C
:10163000E1F71092C001812F902F9C01D9012AEF70
:1016400030E08D91F901E053FF4F80832F5F3F4FD2
:1016500081E020303807A9F7DA0120E230E08D91EF
:10166000F901E053FF4F80832F5F3F4F2632310552
:10167000B1F7A898A9981092D1011092D00184EAEC
:1016800082B985E486BF78941F910F9108952F92B7
:101690003F924F925F926F927F928F929F92AF9202
:1016A000BF92CF92DF92EF92FF920F931F93DF933F
:1016B000CF93CDB7DEB76A970FB6F894DEBF0FBEF3
:1016C000CDBF44E5642E40E0742E88249E01295F3E
:1016D0003F4F388F2F8B3DE0232E312C2C0E3D1E9B
:1016E00028E0422E512CDE011196F30184918D9356
:1016F00031964F89588DA417B507C1F780E090E067
:10170000FC01E055FF4FE081F0E0E258FF4FE4912B
:10171000D101A80FB91FEC9301968A30910581F78A
:10172000AA88CF8429812A2530E04C2D477050E0CB
:101730009E88B988C201841B950BB90102C0660F4F
:10174000771F8A95E2F7CB0102C0359527954A9518
:10175000E2F7822B89198B258F83EE84DD842A8121
:101760002E2530E04D2D477050E0AC89C201841B1E
:10177000950BF90102C0EE0FFF1F8A95E2F7CF012A
:1017800002C0359527954A95E2F7822B8A198A2758
:101790008887EB892B812E2730E00D89077010E0B8
:1017A000B201601B710BC901062E02C0880F991F80
:1017B0000A94E2F7002E02C0359527950A94E2F7C5
:1017C000822B8C198D2589872C812B2530E04A2F7F
:1017D0004770842F90E09A8F898FD888C201498DF5
:1017E0005A8D841B950BA90102C0440F551F8A9581
:1017F000E2F7CA01098C02C0359527950A94E2F7F1
:10180000822B8D198C258A878D81E826FF24E7702D
:10181000F0E0C2018E1B9F0B970102C0220F331F05
:101820008A95E2F7C90102C0F594E794EA95E2F7D8
:101830008E298D198B258B878E81A827B0E0AD016D
:1018400002C0440F551F6A95E2F7BA0102C0B59570
:10185000A7950A95E2F76A2B6A1969256C87CE016C
:1018600007966AEB70E046E050E00E94BC110097DA
:1018700049F0839466E070E0660E771E77E0871685
:1018800009F031CF282D30E02F5F3F4F522F4427F2
:101890008091BE00FA01E80FF11DE258FF4F9491CC
:1018A0002F5F3F4F322F22278091B300F901E80FBD
:1018B000F11DE258FF4FE491E927E093C0008091C9
:1018C000BC00FA01E80FF11DE258FF4F949180919E
:1018D000B500F901E80FF11DE258FF4FE491E92747
:1018E000E093C1008091BF00FA01E80FF11DE258BA
:1018F000FF4F94918091B700F901E80FF11DE25874
:10190000FF4FE491E927E093C2008091BA00FA0109
:10191000E80FF11DE258FF4F94918091B200F90158
:10192000E80FF11DE258FF4FE491E927E093C3006F
:101930008091BB00FA01E80FF11DE258FF4F94912E
:101940008091B400F901E80FF11DE258FF4FE491D6
:10195000E927E093C4008091BD00FA01E80FF11D72
:10196000E258FF4F94918091B900F901E80FF11D01
:10197000E258FF4FE491E927E093C5008091B00061
:10198000FA01E80FF11DE258FF4F94918091B600E3
:10199000F901E80FF11DE258FF4FE491E927E093C8
:1019A000C6008091B100FA01E80FF11DE258FF4F27
:1019B00094918091B800F901E80FF11DE258FF4FB2
:1019C000E491E927E093C7008091BA00FA01E80F9B
:1019D000F11DE258FF4F94918091B100F901E80F99
:1019E000F11DE258FF4FE491E927E093C800809190
:1019F000BF00FA01E80FF11DE258FF4F949180916A
:101A0000B400F901E80FF11DE258FF4FE491E92716
:101A1000E093C9008091BD00FA01E80FF11DE25882
:101A2000FF4F94918091B000F901E80FF11DE25849
:101A3000FF4FE491E927E093CA008091BC00FA01CE
:101A4000E80FF11DE258FF4F94918091B900F90120
:101A5000E80FF11DE258FF4FE491E927E093CB0036
:101A60008091BE00FA01E80FF11DE258FF4F9491FA
:101A70008091B700F901E80FF11DE258FF4FE491A2
:101A8000E927E093CC008091BB00FA01E80FF11D3B
:101A9000E258FF4F94918091B800F901E80FF11DD1
:101AA000E258FF4FE491E927E093CD008091B30025
:101AB000FA01E80FF11DE258FF4F94918091B500B3
:101AC000F901E80FF11DE258FF4FE491E927E09397
:101AD000CE008091B200480F511D42585F4FFA016D
:101AE00094918091B600280F311D22583F4FF90183
:101AF000849189278093CF006A960FB6F894DEBF51
:101B00000FBECDBFCF91DF911F910F91FF90EF904E
:101B1000DF90CF90BF90AF909F908F907F906F900D
:101B20005F904F903F902F900895982F805486306B
:101B3000A0F420E430E049E450E0FA01E21BF30BAA
:101B4000D901A053BF4F8C91E055FF4F80832F5F89
:101B50003F4F2634310589F70895892F8654863002
:101B6000C8F4809116018093B3008091170180938F
:101B7000B200809118018093B10080911901809387
:101B8000B00080911A018093BF0080911B01809367
:101B9000BE000895892F8C548430B8F480911C01C4
:101BA0008093BD0080911D018093BC0080911E0137
:101BB0008093BB0080911F018093BA00892F90E031
:101BC000860F911D8035910509F008950E94470BFD
:101BD00008951F920F920FB60F9211242F933F93E7
:101BE0004F935F936F937F938F939F93AF93BF9325
:101BF000EF93FF9381B190E0887F907080399105D9
:101C000009F480C08139910514F1803B910509F4F4
:101C100062C0813B910584F5803A910509F464C066
:101C2000883A910509F457C085E886BFFF91EF9186
:101C3000BF91AF919F918F917F916F915F914F91E4
:101C40003F912F910F900FBE0F901F9018958037E6
:101C5000910569F081379105B4F18038910509F457
:101C600051C08838910501F388379105E9F6109243
:101C7000D20185EC86BFDACF803C910509F1883C22
:101C80009105F1F0883B910579F68091C0018A3A7F
:101C900009F449C0E091D001F091D101E053FF4F28
:101CA000808183B98091D0019091D1010196909368
:101CB000D1018093D0018091D3018F5F8093D301B4
:101CC00085EC86BFB3CF8036910589F288369105C1
:101CD00009F0AACFCCCF8091D0019091D1010E9480
:101CE000F70A1092D301D1CF8091D0019091D10108
:101CF0002091D3016091D301821B0E94950D85EC48
:101D000086BF94CF8091D201882351F123B1809175
:101D1000C0018A3A89F1E091D001F091D101E053FC
:101D2000FF4F2083BFCFE091D001F091D101E0536C
:101D3000FF4F8081E091D001F091D101E770F07008
:101D4000E054FF4F2081E091D001F091D101E77084
:101D5000F070E853FF4F9081821B892783B9A2CF8F
:101D600083B190E09093D1018093D00181E0809382
:101D7000D2011092D301A4CF8091D0019091D101D2
:101D8000803F910541F2A091D001B091D101E09145
:101D9000D001F091D101E770F070E853FF4F8081DE
:101DA000E091D001F091D101E770F070E054FF4F65
:101DB00090818227890FA053BF4F8C9373CFD09A05
:101DC000D19AD298DA9A0895D89840E020E030E08D
:101DD00052E4D998852F8A95F1F789B3869586952F
:101DE00090E081709070022E02C0880F991F0A94B3
:101DF000E2F7482BD99A852F8A95F1F72F5F3F4F4D
:101E00002830310531F7D89A842F0895D49AD59A7D
:101E1000D698DE9A0895DC9840E050E020E030E06B
:101E200062E4DD98862F8A95F1F789B382958695CD
:101E30008695837090E081709070022E02C0880FAA
:101E4000991F0A94E2F7482B592BDD9A862F8A9521
:101E5000F1F72F5F3F4F2031310519F7DC9ACA01A6
:101E6000089583B7816083BF8F98979808959C01E8
:101E70008F9A12BE82B78C33E8F38F9812BE82B766
:101E80008431E8F38F9A12BE82B78C33E8F38F98CF
:101E900012BE82B78431E8F38F9A12BE82B78C33B8
:101EA000E8F38F9812BE82B78431E8F38F9A12BE9E
:101EB00082B78C33E8F38F9812BE82B78431E8F38F
:101EC0008F9A12BE82B78C33E8F38F9812BE82B716
:101ED0008431E8F38F9A12BE82B78C33E8F38F987F
:101EE00012BE82B78431E8F38F9A12BE82B78C3368
:101EF000E8F38F9812BE82B78431E8F38F9A12BE4E
:101F000082B78431E8F38F9812BE82B78C33E8F33E
:101F10008F9A12BE82B78431E8F38F9812BE82B7CF
:101F20008832E8F3F90120E030E0108240E050E030
:101F300012BE879B07C082B7803FD8F320E030E015
:101F4000C901089512BE879904C082B7803FD8F3B3
:101F5000F5CF9081990F908382B7843278F04F5FEC
:101F60005F4F4830510521F72F5F3F4F31962430A6
:101F70003105D9F621E030E0C901089591609083E0
:101F8000EECFD79AA298A398A498A598A698A798B8
:101F9000AA9AAB9AAC9AAD9AAE9AAF9A08959F92CC
:101FA000AF92BF92CF92DF92EF92FF920F931F9367
:101FB000DF988AEF90E0FC013197F1F793B203B319
:101FC000E3B2C3B2A3B263B3DF9A0197F1F7B3B33D
:101FD00083B323B343B3E3B3A3B3AA1FAA27AA1FB0
:101FE000A295AA0FA07EB695B695B170AB2B86953B
:101FF0008695869590E081709070880F991FA82B28
:1020000022952F7030E021703070220F331F220F85
:10201000331FA22B42954695477050E04170507097
:10202000440F551F440F551F440F551FA42BE29515
:10203000E695E695E370F0E0E170F070E295F295D8
:10204000F07FFE27E07FFE279A2F9E2B80E0661F01
:102050006627661F6295660F607E9694969421E0CF
:102060009222692906950695069510E00170107078
:10207000000F111F602BE294EFE0EE22FF2421E01D
:10208000E222FF24EE0CFF1CEE0CFF1C6E29C29412
:10209000C69457E0C522DD2421E0C222DD24CC0C09
:1020A000DD1CCC0CDD1CCC0CDD1C6C29A294A69490
:1020B000A69433E0A322BB2421E0A222BB24A29455
:1020C000B29420EFB222BA24A222BA246A2970E084
:1020D000682B792BCB011F910F91FF90EF90DF9030
:1020E000CF90BF90AF909F9008958B9A939A8A98C3
:1020F000929A8D9A959A8E9A969A0895AF92BF92D7
:10210000CF92DF92EF92FF921F93CF93DF936C01F8
:102110005B017A01959885E88A95F1F71416150602
:102120000CF03CC0FB0140E050E015E8C1E0D0E01D
:10213000108260E070E0D601A40FB51F1AC0939A18
:102140009698812F8A95F1F7829B0AC09E01062EF0
:1021500002C0220F331F0A94E2F78081822B808312
:10216000969A812F8A95F1F76F5F7F4F68307105DE
:1021700061F08C9190E0062E02C0959587950A94A7
:10218000E2F780FDDCCF9398DBCF41305105B9F009
:102190004F5F5F4F31964E155F0554F2959A85E873
:1021A0008A95F1F721E030E0C901DF91CF911F91CD
:1021B000FF90EF90DF90CF90BF90AF900895D50142
:1021C00011968C918F3F21F7959A20E030E0ECCF6B
:1021D000CF92DF92EF92FF920F931F93DF93CF93F3
:1021E000CDB7DEB7ED970FB6F894DEBF0FBECDBF0B
:1021F0008C016B0159E2E52EF12CEC0EFD1E85E100
:10220000F70111928A95E9F781E089A782E48AA70C
:102210004CA72DA7C701B801A6010E947E10892BEB
:10222000B1F08091D4018823B9F021E030E0C901F8
:10223000ED960FB6F894DEBF0FBECDBFCF91DF9104
:102240001F910F91FF90EF90DF90CF900895109223
:10225000D40120E030E0EBCFCE010196DC01E9EAC9
:10226000F0E025E001900D922150E1F7B80145E042
:1022700050E00E947E10892B19F420E030E0D7CF87
:10228000CE010E96DC01E0EAF0E029E001900D922B
:102290002150E1F7B80149E050E00E947E10892BFF
:1022A00061F3CE014796DC01E7E9F0E029E0019017
:1022B0000D922150E1F7B80149E050E00E947E10F4
:1022C000892BD9F2CE018096DC01EEE8F0E029E01E
:1022D00001900D922150E1F7B80149E050E00E94D1
:1022E0007E10892B51F2CE010696DC01E6E8F0E083
:1022F00028E001900D922150E1F7B80148E050E04C
:102300000E947E10892B09F4B8CF81E08093D4011C
:10231000C701B801A6010E947E1020E0892B09F4B4
:1023200021E081E0282730E082CF97FB092E0726A5
:102330000AD077FD04D00CD006D000201AF4709596
:1023400061957F4F0895F6F7909581959F4F089579
:10235000AA1BBB1B51E107C0AA1FBB1FA617B707CB
:1023600010F0A61BB70B881F991F5A95A9F78095E7
:102370009095BC01CD010895FB01DC0104C08D9155
:102380000190801921F441505040C8F7881B990BE7
:102390000895E199FECF9FBB8EBBE09A99278DB33C
:1023A0000895262FE199FECF9FBB8EBB2DBB0FB6A4
:1023B000F894E29AE19A0FBE01960895F894FFCF3F
:1023C0000000A42001010000000000000000000047
:1023D00000000000000000000000000000000000FD
:1023E00000000000000001430000FFFFFFFF014F5D
:1023F00000FFFF03000000014D000001FFFFFFFF91
:0E240000014400010300000000014300010040
:00000001FF
